:100000007EC000009DC000009BC0000099C00000A1
:1000100097C0000095C0000093C0000091C0000090
:100020008FC000008DC000008BC0000089C00000A0
:1000300087C0000085C0000083C0000081C00000B0
:100040007FC00000D4C100007BC0000079C0000068
:1000500077C0000075C0000073C0000071C00000D0
:100060006FC000006DC000006BC0000069C00000E0
:1000700067C0000065C0000063C0000061C00000F0
:100080005FC000005DC000005BC0000059C0000000
:1000900057C0000055C0000053C0000051C0000010
:1000A0004FC000004DC000004BC0000049C0000020
:1000B00047C0000045C0000043C0000041C0000030
:1000C0003FC000003DC000003BC0000039C0000040
:1000D00037C0000035C0000033C0000031C0000050
:1000E0002FC00000D208A305D208AD058606B006D1
:1000F000E006E506E7063C07840786071208112498
:100100001FBECFEFD1E2DEBFCDBF00E00CBF18E0D5
:10011000A0E0B2E0EEE4FAE100E00BBF02C007901D
:100120000D92A037B107D9F72CE1A0E7B8E001C0E4
:100130001D92AF37B207E1F70E94A6090C94250D76
:100140005FCF0F921F922F923F924F925F926F92CA
:100150007F928F929F92AF92BF92CF92DF92EF9257
:10016000FF920F931F932F933F934F935F936F9340
:100170007F938F939F93AF93BF93CF93DF93EF932F
:10018000FF93FCB7FF93FFB7FF93EDB7FEB7E09384
:100190006F1CF093701CE091691CF0916A1CEDBF1C
:1001A000FEBFFF91FFBFFF91FCBFFF91EF91DF9179
:1001B000CF91BF91AF919F918F917F916F915F91FF
:1001C0004F913F912F911F910F91FF90EF90DF90F2
:1001D000CF90BF90AF909F908F907F906F905F90E7
:1001E0004F903F902F901F900F9018950F921F9255
:1001F0002F923F924F925F926F927F928F929F9237
:10020000AF92BF92CF92DF92EF92FF920F931F9324
:100210002F933F934F935F936F937F938F939F930E
:10022000AF93BF93CF93DF93EF93FF93FCB7FF930D
:10023000FFB7FF93EDB7FEB7E093691CF0936A1C1C
:10024000E0916F1CF091701CEDBFFEBFFF91FFBFEE
:10025000FF91FCBFFF91EF91DF91CF91BF91AF91E3
:100260009F918F917F916F915F914F913F912F91CE
:100270001F910F91FF90EF90DF90CF90BF90AF90C4
:100280009F908F907F906F905F904F903F902F90B6
:100290001F900F9008951816190684F52091820B6F
:1002A0003091830B2817390799F021E030E06EE098
:1002B00071E0269FF001279FF00D369FF00D11246D
:1002C000EE57F44F408151814817590779F402C025
:1002D00020E030E04EE051E0249FC001259F900DCA
:1002E000349F900D11248E57944F08952F5F3F4FE8
:1002F00020313105F1F680E090E0089580E090E053
:100300000895009751F02091520B3091530B28170C
:100310003907E1F021E030E00AC08CE192E00E9470
:100320005B0A81E08093681C80E090E00895F90109
:10033000EE0FFF1FE20FF31FEE0FFF1FEE5AF44FF9
:10034000408151814817590769F402C020E030E02C
:10035000C901880F991F820F931F880F991F8E5A0A
:10036000944F08952F5F3F4F2830310501F789E002
:100370008093681C80E090E00895009759F02091E8
:100380007A0830917B0828173907D9F021E030E04E
:100390006BE50AC08EE492E00E945B0A81E08093E4
:1003A000681C80E090E00895629FF001639FF00D6B
:1003B0001124E658F74F408151814817590761F4DD
:1003C00002C020E030E04BE5429FC001439F900D0A
:1003D00011248658974F08952F5F3F4F28303105DD
:1003E00019F78DE08093681C80E090E008951F92DB
:1003F0000F920FB60F9211248F939F9380917008E4
:1004000090917108019690937108809370089F9164
:100410008F910F900FBE0F901F90189580917008CC
:1004200090917108892B09F46FC080E090E02EE074
:1004300031E061E0829FF001839FF00D929FF00D0B
:100440001124EE57F44F4381443029F5A0917008F0
:10045000B0917108829FF001839FF00D929FF00D83
:100460001124EE57F44F468157814A1B5B0B57838B
:1004700046834681578114161506ECF1829FF001E0
:10048000839FF00D929FF00D1124EE57F44F63837C
:100490001782168230C0829FF001839FF00D929FD9
:1004A000F00D1124EE57F44F4481443021F5A09112
:1004B0007008B0917108829FF001839FF00D929FA8
:1004C000F00D1124EE57F44F468157814A1B5B0B08
:1004D00057834683468157811416150664F0829F20
:1004E000F001839FF00D929FF00D1124EE57F44F11
:1004F00064831782168201968031910509F09ACFA4
:1005000010927108109270080895CF93DF9320E144
:1005100030E0AFEFBFEF6BE070E04EE051E0809174
:1005200078089091790801968F70992790937908AF
:10053000809378088091780890917908849FF001E1
:10054000859FF00D949FF00D1124EE57F44F838199
:10055000813029F58091780890917908849FF00185
:10056000859FF00D949FF00D1124EE57F44F82817A
:1005700090E0861797079CF480917808909179080D
:10058000849FF001859FF00D949FF00D1124EE578C
:10059000F44F628170E0A0917808B0917908215001
:1005A000310909F0BCCFAF3F8FEFB80711F5789450
:1005B000CEE0D1E00CC08091780890917908019646
:1005C0008F709927909379088093780827DF80911E
:1005D0007808909179088C9FF0018D9FF00D9C9F79
:1005E000F00D1124EE57F44F8381813021F7F894F8
:1005F00004C0B0937908A0937808209178083091CE
:1006000079088EE091E0289FF001299FF00D389F36
:10061000F00D1124EE57F44FF0936C1CE0936B1C1B
:100620008285938590936A1C8093691C82E0838302
:10063000DF91CF910895CF92DF92EF92FF920F93C7
:100640001F93CF93DF93DC01809176089091770818
:10065000409749F08091850B8823F1F021E030E04C
:10066000CEE0D1E007C080E892E025D784E0809317
:10067000681C6EC02C9FF0012D9FF00D3C9FF00D6B
:100680001124EE57F44F9381992341F02F5F3F4F90
:100690002031310579F702C020E030E08091760802
:1006A0009091770801969093770880937608EEE012
:1006B000F1E02E9FC0012F9F900D3E9F900D1124C1
:1006C000EC01C357D34F8C010257144FC12CDD24CA
:1006D000D394F8018601119201501040E1F7CE0148
:1006E00006E219E008830197FC011083319710821C
:1006F0003197A0833197B0833197108290E0929325
:100700009F5F9232E1F78091621C9091631C019689
:100710009093631C8093621C0EE011E0209FF00117
:10072000219FF00D309FF00D1124EE57F44F91836F
:100730008083628351874087158281E08383A897F5
:10074000D387C287E45FFE4FB183A0831092681CF9
:10075000DF91CF911F910F91FF90EF90DF90CF909D
:1007600008958091740890917508089748F48091D5
:10077000520B9091530B892BE1F081E090E007C080
:100780008CEC92E098D688E08093681C0895FC0178
:10079000EE0FFF1FE80FF91FEE0FFF1FEE5AF44F89
:1007A00020813181232B39F001968830910579F72A
:1007B00002C080E090E02091661C3091671C2F5FA2
:1007C0003F4F3093671C2093661CFC01EE0FFF1F08
:1007D000DF01A80FB91FAA0FBB1FAE5AB44F119665
:1007E0003C932E93FD0113821282809174089091A4
:1007F0007508019690937508809374081092681C90
:100800008091661C9091671C9F938F938AE193E07F
:100810009F938F933DD60F900F900F900F90089558
:10082000CF938091720890917308089750F480914B
:100830007A0890917B08892BE1F041E050E02BE5AC
:1008400007C089E393E037D68CE08093681C7AC0B8
:10085000249FF001259FF00D1124E658F74F808169
:100860009181892B41F04F5F5F4F4830510581F7EF
:1008700002C040E050E080916D1C90916E1C01968A
:1008800090936E1C80936D1C2BE5249FF001259F97
:10089000F00D1124E658F74F918380831382128262
:1008A00080E090E06BE5649F9001659F300D11241E
:1008B000DF01CBE06FEF7FEFFD01E80FF91FC6A36B
:1008C000FC013396EE0FFF1FE20FF31FE658F74FC0
:1008D00071836083FC017B96EE0FFF1FE20FF31F15
:1008E000E658F74F1182108201968031910521F769
:1008F0002BE5249FC001259F900D11248658974F0A
:10090000FC01EA5AFF4F1182108232961182108246
:100910008091720890917308019690937308809368
:1009200072081092681C80916D1C90916E1C9F93B0
:100930008F9380E993E09F938F93AAD50F900F90A8
:100940000F900F90CF910895E1E8F0E080818560ED
:10095000808380818D7F8083808188608083808197
:100960008C7E80838DE990E090938900809388004D
:100970001092850010928400EFE6F0E080818260A2
:10098000808388EB93E097C50895109277081092C2
:10099000760810927508109274081092651C1092D7
:1009A000641C1092710810927008109279081092CD
:1009B00078081092631C1092621C1092671C1092AF
:1009C000661C10926E1C10926D1C1092681C80EEBA
:1009D00090E1E2E8FBE0DF019C011D9221503040F4
:1009E000E1F780E090E02EE031E0829FF001839F0C
:1009F000F00D929FF00D1124EE57F44F13820196E3
:100A00008031910591F780E3E2E5FBE0DF011D9283
:100A10008A95E9F780E090E0FC01EE0FFF1FE80FF8
:100A2000F91FEE0FFF1FEE5AF44F1182108201964C
:100A30008830910589F788ED92E0EAE7F8E0DF0178
:100A40009C011D9221503040E1F780E090E0FC01D4
:100A5000EE0FFF1FE80FF91FEE0FFF1FEE5AF44FC6
:100A60001182108201968830910589F78BEC93E012
:100A700022C508952F923F924F925F926F927F927C
:100A80008F929F92AF92BF92CF92DF92EF92FF929E
:100A90000F931F93CF93DF9300D000D0CDB7DEB775
:100AA0008091641C9091651C892B09F083C380910F
:100AB000760890917708892B09F47CC3F89481E03B
:100AC00090E09093651C8093641C3EDF8BED93E077
:100AD000F2D41BDD99249394412CD12C22242A9406
:100AE000322C66246394512C0F2EFBE5CF2EF02D73
:100AF000842C7D2CE0916B1CF0916C1C15828285FE
:100B0000938590936A1C8093691C1BDBE0916B1C9E
:100B1000F0916C1C8091691C90916A1C938782876C
:100B20007DDC20916B1C30916C1CD90115968C9149
:100B300090E08D30910508F039C3FC018827EE580C
:100B4000FF4F8F4F9DC4F901408551856281E45F5D
:100B5000FE4F808191816FDDCDCFE42CFD2C0BE029
:100B6000FA82E98229813A81C29EF001C39EF00D8A
:100B70001124E658F74F22813381E0916B1CF091EC
:100B80006C1C808191812817390709F0A7C08981E1
:100B90009A81C89EF001C99EF00D1124E053F74FD1
:100BA00080819181892B09F48CC0A981BA81CA9E68
:100BB000F001CB9EF00D1124EE52F74F6081718150
:100BC0006F5F7F4FE82CF72C102F282D372DCA9EF2
:100BD000A001CB9E500D1124CA018658974FFC01ED
:100BE000E20FF31FE6A1E117C8F4FC01E20FF31FC7
:100BF00016A1F9017B96EE0FFF1FE40FF51FE658D3
:100C0000F74F60817181F9013396EE0FFF1FE40FFA
:100C1000F51FE658F74FE080F18028C0FC01E20F95
:100C2000F31FE6A11E1322C0F9017B96EE0FFF1FF2
:100C3000E40FF51FE658F74F0190F081E02D6E1795
:100C40007F07A0F4F9017B96EE0FFF1FE40FF51F5D
:100C5000E658F74F60817181F9013396EE0FFF1F5F
:100C6000E40FF51FE658F74FE080F1802F5F3F4F0C
:100C70002031310509F0B3CFBA83A983CA9EC001E0
:100C8000CB9E900D1124FC01E658F74F5F0137A26F
:100C900026A206ABEA5AFF4F118210828081918111
:100CA000019791838083C701F6DAD5011396FC92F0
:100CB000EE921297F501E65AFF4F1083FC019382E2
:100CC0000DC029813A81C29EF001C39EF00D11240E
:100CD000E658F74F138212821582148289819A8115
:100CE00001969A838983089709F03CCFE0916B1CA9
:100CF000F0916C1C1382809176089091770801978F
:100D0000909377088093760800DCF4CED90116968C
:100D10008D919C911797BFDAFC01892B39F486EEEF
:100D200093E0C9D385E08093681CE4CE8381882357
:100D300011F0833079F41F928F93A1E2B4E0BF9356
:100D4000AF93A6D386E08093681C0F900F900F900E
:100D50000F90D0CE848383E083831092681CCACE28
:100D6000D90116968D919C91179795DA8C01009771
:100D700039F485E794E09FD385E08093681CBACE70
:100D8000FC0183818330A9F08FEA94E094D3D801E9
:100D900013968C911F928F93A1EFB4E0BF93AF9302
:100DA00077D387E08093681C0F900F900F900F907F
:100DB000A1CE8481838383E084831092681C9ACEC1
:100DC00084E0F9018383A1DB95CECBDC93CED901FE
:100DD00016968D919C91179794DAFC01892B21F43A
:100DE00084E095E068D33EC0828193810097C1F092
:100DF000A0916B1CB0916C1C2D913C9182179307B4
:100E000079F09F938F93A6E3B5E0BF93AF9340D360
:100E100089E08093681C0F900F900F900F9022C074
:100E200084819581892B81F013821282158214822C
:100E300011821082809174089091750801979093A7
:100E40007508809374080EC0A0916B1CB0916C1C47
:100E50008D919C9111979383828385E013968C9357
:100E60001092681CE0916B1CF0916C1C83818230A5
:100E700009F440CE4ADB3ECED90116968D919C9165
:100E800017973FDA8C01009721F480E895E013D39F
:100E900039C0FC0184819581892B11F464825582CB
:100EA000D80112968D919C911397009739F484EB99
:100EB00095E001D38BE08093681C24C0ECD90097A7
:100EC00039F486E096E0F7D285E08093681C1AC07A
:100ED000FC0123812530B1F4D80113961C921E9297
:100EE000129715961C921E9214971D921C92209197
:100EF000740830917508215031093093750820939A
:100F00007408938202DBF6CD8BDCF4CDF901868187
:100F1000978133DA8C01DC0112968D919C911397A5
:100F2000BAD90115110521F48FE496E0C4D2E2CDBF
:100F3000F8012281338121153105B1F4E0916B1C58
:100F4000F0916C1C80819181D80113969C938E93B3
:100F5000129714966C92149715965C928281F80100
:100F6000E65AFF4F8083C6CDA0916B1CB0916C1CDC
:100F70004D915C9111972417350739F4F80184815C
:100F80009581019695838483B5CD26E013962C93A5
:100F90001397F801EA5AFF4F208131812F5F3F4FAD
:100FA000318320833296608171816F5F7F4F7183BF
:100FB0006083F801268137812F3F3F4F61F0F801B0
:100FC0003896262D352D7B01419151914F3F5F4F32
:100FD000C1F4B70102C0242D3D2D4D915C911197B4
:100FE000F901EE0FFF1FE00FF11F5783468377AB28
:100FF00066AB12964C911297F801E20FF31F46A3CD
:1010000005C02F5F3F4F20313105F1F612963C911C
:101010001297FC012281321718F412962C91228328
:1010200074DA68CDD90116968D919C911797A5D940
:101030009C838B83FC01828193812DD99A83898340
:101040002B813C81232B21F481E896E034D252CDD0
:10105000E0916B1CF0916C1C80819181AB81BC8113
:1010600012962D913C9113972817390721F085EBA3
:1010700096E021D23FCDEB81FC8184819581823045
:10108000910520F001979583848334CDEB81FC8119
:10109000EA5AFF4FA080B180A114B10409F474C0D2
:1010A000EB81FC81E85AFF4F608171816F5F7F4F58
:1010B0002B813C812A5D3F4FEB81FC81F696AB8111
:1010C000BC8116964B815C814A5A5F4FF42C0D2DE2
:1010D0001BE0BE83AD83C9012B813C819C838B8344
:1010E000AB81BC81ED90BC83AB83E11648F4608199
:1010F0007181AD81BE81FC9011960C911E2D10C0A6
:10110000E1120EC0808191816817790740F4AD81AA
:10111000BE81FC9011960C911E2DBC0101C01E2DAC
:1011200032968D819E8102969E838D83E417F5070A
:10113000B9F63C832B83D90197963C922E929697D1
:101140008BE0D6968C93F901EA5AFF4FC5010197BF
:10115000918380838F2D902F9ED8AB81BC81A65A1E
:10116000BF4F2C91E981FA812283EB81FC81F282CD
:1011700003831C93DC0113969C92E0916B1CF0910D
:101180006C1C9382C2D9B6CCEB81FC811382128293
:1011900015821482E65AFF4F8081A981BA81129686
:1011A0008C93A8CCF9019382B0D9A4CC82E080932F
:1011B000681CA0CC26960FB6F894DEBF0FBECDBF3C
:1011C000DF91CF911F910F91FF90EF90DF90CF9023
:1011D000BF90AF909F908F907F906F905F904F9057
:1011E0003F902F9008952091641C3091651C232B13
:1011F00089F0F894E0916B1CF0916C1C628351872C
:10120000408721E02583E45FFE4F918380830E9425
:10121000F60001C010DA8091681C8430A1F0809142
:10122000621C9091631C9F938F938FEE96E09F9327
:101230008F932ED18091621C9091631C0F900F9020
:101240000F900F90089580E090E008958091641CC5
:101250009091651C892B21F483E08093681C08958C
:10126000F894E0916B1CF0916C1C83E085830C94E6
:10127000F60008958091641C9091651C892B21F4DF
:1012800083E08093681C0895F894E0916B1CF091C2
:101290006C1C82E085830C94F60008958091641C98
:1012A0009091651C892B51F0F894E0916B1CF091A2
:1012B0006C1C8AE085830E94F60001C0B1DA80913F
:1012C000681C8C30A1F080916D1C90916E1C9F93D6
:1012D0008F9383E197E09F938F93DAD080916D1C79
:1012E00090916E1C0F900F900F900F90089580E0DA
:1012F00090E008952091641C3091651C232B21F40B
:1013000083E08093681C0895F894E0916B1CF09141
:101310006C1C2BE02583978386830C94F60008953C
:101320002091641C3091651C232B21F483E0809371
:10133000681C0895F894E0916B1CF0916C1C2CE0F3
:101340002583978386830C94F60008957DD08DD0F5
:1013500086E297E0B0D058C0089584E397E0ABD020
:1013600084E397E0A8D084E397E0A5C0089582E4E1
:1013700097E0A1D040E050E062E08DEA99E033DFF1
:101380008BE597E098D08091731C9091741CB2DF2C
:1013900084E797E090D08091731C9091741CAADF31
:1013A00087EA97E088C0089579DF9093741C809352
:1013B000731C89EC97E07FD08091731C9091741C12
:1013C00099DF81EE97E077D040E050E061E087EB75
:1013D00099E009DF4FDFCAE0D0E003EF17E0DF93C9
:1013E000CF931F930F9354D021970F900F900F908E
:1013F0000F90A9F78091731C9091741C91DF3ADFD4
:1014000081E498E058D0FCCFC0DA40E050E063E0DF
:1014100084ED99E0E8DE2ECB0895CF93C82F8A3073
:1014200011F48DE0FADFE0ECF0E0908195FFFDCF64
:10143000C093C600CF910895E0ECF0E0808188234E
:10144000ECF78091C60008951092C50087E680935E
:10145000C400E0ECF0E080818D7F808386E08093A3
:10146000C20088E18093C1000895E9E7FCE18EE0C5
:1014700092E09383828380E092E091838083089559
:10148000EE0FFF1F881F8BBF0790F691E02D199478
:10149000CF93DF93CDB7DEB7AE014A5F5F4FFA015E
:1014A00061917191AF0180917B1C90917C1C33D034
:1014B000DF91CF9108950F931F93CF93DF93E09126
:1014C0007B1CF0917C1C238121FF1BC08C01D0E090
:1014D000C0E0F80181918F0160917B1C70917C1CB0
:1014E000DB011896ED91FC911997882331F019953D
:1014F000892B79F3DFEFCFEFECCF8AE01995892BB9
:1015000019F08FEF9FEF02C08D2F9C2FDF91CF91AD
:101510001F910F9108952F923F924F925F926F9279
:101520007F928F929F92AF92BF92CF92DF92EF9273
:10153000FF920F931F93CF93DF93CDB7DEB72C9716
:101540000FB6F894DEBF0FBECDBF7C016B018A01E0
:10155000FC0117821682838181FFB0C1CE01019602
:101560004C01F7019381F60193FD859193FF8191E1
:101570006F01882309F49EC1853239F493FD85916A
:1015800093FF81916F01853221F4B70190E0C7D1BB
:10159000E8CF512C312C20E02032A0F48B3269F0BE
:1015A00030F4803259F0833269F420612CC08D32DE
:1015B00039F0803339F4216026C02260246023C0D2
:1015C000286021C027FD27C030ED380F3A3078F46D
:1015D00026FF06C0FAE05F9E300D1124532E13C083
:1015E0008AE0389E300D1124332E20620CC08E32DA
:1015F00021F426FD5FC1206406C08C3611F42068FA
:1016000002C0883641F4F60193FD859193FF8191E4
:101610006F018111C1CF982F9F7D9554933028F48D
:101620000C5F1F4FFFE3F9830DC0833631F0833722
:1016300071F0833509F057C021C0F801808189839A
:101640000E5F1F4F44244394512C540114C03801A1
:10165000F2E06F0E711CF801A080B18026FF03C07C
:10166000652D70E002C06FEF7FEFC5012C874CD174
:101670002C0183012C852F77222E16C03801F2E031
:101680006F0E711CF801A080B18026FF03C0652D8C
:1016900070E002C06FEF7FEFC5012C872AD12C01CB
:1016A0002C852068222E830123FC19C0832D90E015
:1016B00048165906A0F4B70180E290E030D13A9480
:1016C000F5CFF50127FC859127FE81915F01B701D8
:1016D00090E025D131103A94F1E04F1A51084114AD
:1016E000510479F7DEC0843611F0893631F5F801FE
:1016F00027FF07C060817181828193810C5F1F4F3A
:1017000008C060817181072E000C880B990B0E5F59
:101710001F4F2F76722E97FF09C090958095709578
:1017200061957F4F8F4F9F4F2068722E2AE030E0E7
:10173000A4012DD1A82EA81843C0853729F42F7EE7
:10174000B22E2AE030E025C0F22FF97FBF2E8F366F
:10175000C1F018F4883579F0ADC0803719F08837BA
:1017600021F0A8C02F2F2061B22EB4FE0DC08B2D0A
:101770008460B82E09C024FF0AC09F2F9660B92E3E
:1017800006C028E030E005C020E130E002C020E1E2
:1017900032E0F801B7FE07C06081718182819381D8
:1017A0000C5F1F4F06C06081718180E090E00E5F8A
:1017B0001F4FA401ECD0A82EA818FB2DFF777F2E79
:1017C00076FE0BC0372D3E7FA51450F474FE0AC080
:1017D00072FC08C0372D3E7E05C0BA2C372D03C0E1
:1017E000BA2C01C0B52C34FF0DC0FE01EA0DF11D6D
:1017F0008081803311F4397E09C032FF06C0B39472
:10180000B39404C0832F867809F0B39433FD12C0DB
:1018100030FF06C05A2CB31418F4530C5B18B32CC9
:10182000B31460F4B70180E290E03C8778D0B394C1
:101830003C85F6CFB31410F43B1801C0312C34FFB3
:1018400011C0B70180E390E03C8769D03C8532FF4E
:1018500016C031FD03C088E790E002C088E590E043
:10186000B7010CC0832F867851F031FF02C08BE2A4
:1018700001C080E237FD8DE2B70190E050D0A514A1
:1018800030F4B70180E390E04AD05A94F8CFAA949C
:10189000F401EA0DF11D8081B70190E040D0A11064
:1018A000F6CF332009F45DCEB70180E290E037D067
:1018B0003A94F7CFF7018681978102C08FEF9FEFAF
:1018C0002C960FB6F894DEBF0FBECDBFDF91CF913F
:1018D0001F910F91FF90EF90DF90CF90BF90AF904E
:1018E0009F908F907F906F905F904F903F902F9040
:1018F0000895FC010590615070400110D8F7809563
:1019000090958E0F9F1F0895FC01615070400190CB
:101910000110D8F7809590958E0F9F1F08950F9313
:101920001F93CF93DF93FB01238121FD03C08FEF32
:101930009FEF28C022FF16C0468157812481358140
:101940004217530744F4A081B1819D012F5F3F4F9F
:10195000318320838C93268137812F5F3F4F3783DC
:10196000268310C0EB01092F182F0084F185E02D8C
:101970001995892BE1F68E819F8101969F838E8335
:10198000812F902FDF91CF911F910F910895FA0130
:10199000AA27283051F1203181F1E8946F936E7FAE
:1019A0006E5F7F4F8F4F9F4FAF4FB1E03ED0B4E09F
:1019B0003CD0670F781F891F9A1FA11D680F791FE0
:1019C0008A1F911DA11D6A0F711D811D911DA11DF1
:1019D00020D009F468943F912AE0269F1124301901
:1019E000305D3193DEF6CF010895462F4770405D9C
:1019F0004193B3E00FD0C9F7F6CF462F4F70405D4B
:101A00004A3318F0495D31FD4052419302D0A9F7A5
:101A1000EACFB4E0A6959795879577956795BA959F
:101A2000C9F700976105710508959B01AC010A2E65
:101A300006945795479537952795BA95C9F7620F3C
:0E1A4000731F841F951FA01D0895F894FFCFFB
:101A4E00000000010000000000001C0A0000000061
:101A5E000002000000000D0A0000000066696E64BE
:101A6E004576656E74427949443A20546865207310
:101A7E007065636966696564206576656E74204974
:101A8E004420697320696E76616C69642100666911
:101A9E006E644D75746578427949443A2054686590
:101AAE0020737065636966696564206D7574657809
:101ABE0020494420697320696E76616C6964210047
:101ACE005461736B5F4372656174653A2046616958
:101ADE006C656420746F2063726561746520746137
:101AEE00736B2E205468652073797374656D20694D
:101AFE0073206174206974732070726F63657373E1
:101B0E00207468726573686F6C642E004576656E1E
:101B1E00745F496E69743A204661696C656420741D
:101B2E006F20637265617465204576656E742E2034
:101B3E005468652073797374656D206973206174C0
:101B4E0020697473206D6178206576656E742074DB
:101B5E0068726573686F6C642E004576656E745F8F
:101B6E00496E69743A2043726561746564204576E6
:101B7E00656E74202564210A004B65726E656C5F7C
:101B8E004372656174655F4D757465783A20466180
:101B9E00696C656420746F20637265617465204D95
:101BAE00757465782E205468652073797374656D2D
:101BBE0020697320617420697473206D6178206DC3
:101BCE0075746578207468726573686F6C642E0026
:101BDE004B65726E656C5F4372656174655F4D75C2
:101BEE007465783A2043726561746564204D75742E
:101BFE006578202564210A0054696D657220696E2E
:101C0E00697469616C697A656421004F5320696E4D
:101C1E00697469616C697A656421004F532062654D
:101C2E0067696E7321004B65726E656C5F537573D9
:101C3E0070656E645F5461736B3A20504944206E38
:101C4E006F7420666F756E6420696E20676C6F62AC
:101C5E00616C2070726F63657373206C697374218D
:101C6E00004B65726E656C5F53757370656E645F65
:101C7E005461736B3A20547279696E6720746F20C9
:101C8E0073757370656E642061207461736B20745C
:101C9E00686174277320696E20616E20756E73758E
:101CAE007370656E6461626C652073746174652017
:101CBE002564210A004B65726E656C5F5265737503
:101CCE006D655F5461736B3A20504944206E6F749A
:101CDE0020666F756E6420696E20676C6F62616C32
:101CEE002070726F63657373206C69737421004B7F
:101CFE0065726E656C5F526573756D655F54617369
:101D0E006B3A20547279696E6720746F2072657316
:101D1E00756D652061207461736B20746861742722
:101D2E0073206E6F742053555350454E44454421D5
:101D3E000043555252454E542053544154453A2077
:101D4E0025640A004B65726E656C5F576169745F3E
:101D5E004576656E743A204572726F722066696EB2
:101D6E0064696E672072657175657374656420654C
:101D7E0076656E7421004B65726E656C5F57616996
:101D8E00745F4576656E743A20546865207265718D
:101D9E00756573746564206576656E74206973204D
:101DAE00616C7265616479206265696E6720776126
:101DBE0069746564206279205049442025640A00C4
:101DCE004B65726E656C5F5369676E616C5F4576CD
:101DDE00656E743A204572726F722066696E646920
:101DEE006E672072657175657374656420657665BE
:101DFE006E7421004B65726E656C5F5369676E6120
:101E0E006C5F4576656E743A202A5741524E494EA4
:101E1E00472A205468652072657175657374656410
:101E2E00206576656E74206973206E6F742062650E
:101E3E00696E672077616974656420627920616ECE
:101E4E00796F6E6521004B65726E656C5F536967C5
:101E5E006E616C5F4576656E743A204576656E747C
:101E6E00206F776E6572277320504944206E6F7411
:101E7E0020666F756E6420696E20676C6F62616C90
:101E8E002070726F63657373206C69737421004BDD
:101E9E0065726E656C5F4C6F636B5F4D75746578C4
:101EAE003A204572726F722066696E64696E6720A1
:101EBE00726571756573746564206D7574657821CE
:101ECE00004B65726E656C5F556E6C6F636B5F4D2C
:101EDE00757465783A204572726F722066696E6409
:101EEE00696E6720726571756573746564206D75B2
:101EFE0074657821004B65726E656C5F556E6C6F04
:101F0E00636B5F4D757465783A20546865206F7702
:101F1E006E6572206973206E6F742074686520631D
:101F2E00757272656E742070726F636573730043A1
:101F3E00726561746564205049443A2025640A0034
:101F4E0043726561746564204576656E743A20252A
:101F5E00640A0043726561746564204D757465781A
:101F6E003A2025640A005354444F55542D3E554192
:101F7E005254210048656C6C6F2066726F6D205252
:101F8E002100713A2068656C6C6F2C20676F6E6E45
:101F9E006120637265617465205200713A20676F2B
:101FAE006E6E612074727920746F206C6F636B207B
:101FBE006D757400713A204920676F7420696E74D4
:101FCE006F20746865206D75746578207965616819
:101FDE00212042757420492077696C6C206C6574E1
:101FEE0020697420676F00713A204920616D206767
:101FFE006F6E6E61206469652C20676F6F6420625E
:10200E00796520776F726C6400703A68656C6C6FDE
:10201E002C20676F6E6E61206C6F636B206D757414
:10202E0000703A20676F6E6E612063726561746531
:10203E00207100703A2079656168204920676F74BD
:10204E0020746865207072696F72697479206F668A
:10205E0020712C20676F6E6E612070726179206620
:10206E006F722025642074696D6573206265666FDA
:10207E00726520756E6C6F636B206D757465780A72
:10208E0000703A20696620722072756E7320626548
:10209E00666F7265206D652C2049206C6F737420FD
:1020AE00746865207072696F72697479203A2800BD
:00000001FF
