:100000007EC000009CC000009AC0000098C00000A4
:1000100096C0000094C0000092C0000090C0000094
:100020008EC000008CC000008AC0000088C00000A4
:1000300086C0000084C0000082C0000080C00000B4
:100040007EC0000062C200007AC0000078C00000DC
:1000500076C0000074C0000072C0000070C00000D4
:100060006EC000006CC000006AC0000068C00000E4
:1000700066C0000064C0000062C0000060C00000F4
:100080005EC000005CC000005AC0000058C0000004
:1000900056C0000054C0000052C0000050C0000014
:1000A0004EC000004CC000004AC0000048C0000024
:1000B00046C0000044C0000042C0000040C0000034
:1000C0003EC000003CC000003AC0000038C0000044
:1000D00036C0000034C0000032C0000030C0000054
:1000E0002EC00000C5078204C5078C049A04C20410
:1000F000F304F9045605AB05F4057D060A0711243F
:100100001FBECFEFD1E2DEBFCDBF00E00CBF18E0D5
:10011000A0E0B2E0E6E0F8E100E00BBF02C007902B
:100120000D92A03DB107D9F72CE1A0EDB8E001C0D8
:100130001D92AD3DB207E1F7FBD70C94010C60CFE7
:100140000F921F922F923F924F925F926F927F92E7
:100150008F929F92AF92BF92CF92DF92EF92FF92D7
:100160000F931F932F933F934F935F936F937F93BF
:100170008F939F93AF93BF93CF93DF93EF93FF93AF
:10018000FCB7FF93FFB7FF93EDB7FEB7E093CD1C2D
:10019000F093CE1CE091C71CF091C81CEDBFFEBFD0
:1001A000FF91FFBFFF91FCBFFF91EF91DF91CF91D6
:1001B000BF91AF919F918F917F916F915F914F917F
:1001C0003F912F911F910F91FF90EF90DF90CF9073
:1001D000BF90AF909F908F907F906F905F904F9067
:1001E0003F902F901F900F9018950F921F922F9273
:1001F0003F924F925F926F927F928F929F92AF92B7
:10020000BF92CF92DF92EF92FF920F931F932F93A3
:100210003F934F935F936F937F938F939F93AF938E
:10022000BF93CF93DF93EF93FF93FCB7FF93FFB799
:10023000FF93EDB7FEB7E093C71CF093C81CE091A5
:10024000CD1CF091CE1CEDBFFEBFFF91FFBFFF9113
:10025000FCBFFF91EF91DF91CF91BF91AF919F9143
:100260008F917F916F915F914F913F912F911F914E
:100270000F91FF90EF90DF90CF90BF90AF909F9045
:100280008F907F906F905F904F903F902F901F9036
:100290000F90089520E130E0AFEFBFEF6BE070E02A
:1002A0004EE051E08091D6089091D70801968F706A
:1002B00099279093D7088093D6088091D60890917B
:1002C000D708849FF001859FF00D949FF00D1124B5
:1002D000E052F44F8381813029F58091D6089091C6
:1002E000D708849FF001859FF00D949FF00D112495
:1002F000E052F44F828190E0861797079CF480913A
:10030000D6089091D708849FF001859FF00D949FA7
:10031000F00D1124E052F44F628170E0A091D608F4
:10032000B091D7082150310909F0BCCFAF3F8FEF12
:10033000B80709F578942EE031E00BC08091D6081B
:100340009091D70801968F7099279093D708809342
:10035000D6088091D6089091D708829FF001839F9C
:10036000F00D929FF00D1124E052F44F8381813003
:1003700029F7F89404C0B093D708A093D608209129
:10038000D6083091D7088EE091E0289FF001299F90
:10039000F00D389FF00D1124E052F44FF093CA1C79
:1003A000E093C91C828593859093C81C8093C71CD9
:1003B00082E0838308951816190684F52091E00BD6
:1003C0003091E10B2817390799F021E030E06EE019
:1003D00071E0269FF001279FF00D369FF00D11244C
:1003E000E052F44F408151814817590779F402C017
:1003F00020E030E04EE051E0249FC001259F900DA9
:10040000349F900D11248052944F08952F5F3F4FD9
:1004100020313105F1F680E090E0089580E090E031
:100420000895009751F02091B00B3091B10B28172F
:100430003907D9F021E030E009C08CE192E017D70C
:1004400081E08093C61C80E090E00895F901EE0FF2
:10045000FF1FE20FF31FEE0FFF1FE055F44F408127
:1004600051814817590769F402C020E030E0C90102
:10047000880F991F820F931F880F991F8055944FE3
:1004800008952F5F3F4F2830310501F789E08093B1
:10049000C61C80E090E00895009759F02091D8089C
:1004A0003091D90828173907D1F021E030E06BE509
:1004B00009C08EE492E0DBD681E08093C61C80E028
:1004C00090E00895629FF001639FF00D1124E852BF
:1004D000F74F408151814817590761F402C020E06D
:1004E00030E04BE5429FC001439F900D112488529C
:1004F000974F08952F5F3F4F2830310519F78DE052
:100500008093C61C80E090E008951F920F920FB672
:100510000F9211240BB60F922F933F934F935F933B
:100520006F938F939F93EF93FF9380E090E02EE083
:1005300031E061E0829FF001839FF00D929FF00D0A
:100540001124E052F44F43814430E9F4829FF001DA
:10055000839FF00D929FF00D1124E052F44F4681DD
:1005600057814150510957834683141615069CF153
:10057000829FF001839FF00D929FF00D1124E052B5
:10058000F44F638328C0829FF001839FF00D929FF8
:10059000F00D1124E052F44F44814430E1F4829F85
:1005A000F001839FF00D929FF00D1124E052F44F63
:1005B00046815781415051095783468314161506C9
:1005C00054F0829FF001839FF00D929FF00D112453
:1005D000E052F44F648301968031910509F0AACF6F
:1005E000FF91EF919F918F916F915F914F913F910B
:1005F0002F910F900BBE0F900FBE0F901F9018956C
:10060000CF92DF92EF92FF920F931F93CF93DF93DE
:10061000DC018091D4089091D508409749F08091F1
:10062000E30B8823F1F021E030E0CEE0D1E007C019
:1006300080E892E01CD684E08093C61C6EC02C9F9C
:10064000F0012D9FF00D3C9FF00D1124E052F44F6E
:100650009381992341F02F5F3F4F2031310579F786
:1006600002C020E030E08091D4089091D508019636
:100670009093D5088093D408EEE0F1E02E9FC0015E
:100680002F9F900D3E9F900D1124EC01C551D34F2B
:100690008C010451144FC12CDD24D394F801860140
:1006A000119201501040E1F7CE0109E118E00883F2
:1006B0000197FC011083319710823197A083319705
:1006C000B0833197108290E092939F5F9232E1F76E
:1006D0008091C01C9091C11C01969093C11C809385
:1006E000C01C0EE011E0209FF001219FF00D309F13
:1006F000F00D1124E052F44F91838083628351877F
:100700004087158281E08383A897D387C287E45FFF
:10071000FE4FB183A0831092C61CDF91CF911F9131
:100720000F91FF90EF90DF90CF900895E1E8F0E017
:1007300080818560808380818D7F808380818860D7
:10074000808380818C7E80838DE990E09093890006
:10075000809388001092850010928400EFE6F0E00C
:100760008081826080838CEC92E081C50895109234
:10077000D5081092D4081092D3081092D208109283
:10078000C31C1092C21C1092D7081092D608109267
:10079000C11C1092C01C1092C51C1092C41C109257
:1007A000CC1C1092CB1C1092C61C80EE90E1E0EEA7
:1007B000FBE0DF019C011D9221503040E1F780E019
:1007C00090E02EE031E0829FF001839FF00D929F38
:1007D000F00D1124E052F44F1382019680319105FF
:1007E00091F780E3E0EBFBE0DF011D928A95E9F7EA
:1007F00080E090E0FC01EE0FFF1FE80FF91FEE0F05
:10080000FF1FE055F44F1182108201968830910548
:1008100089F78CDF8FED92E02AC508952F923F92E1
:100820004F925F926F927F928F929F92AF92BF9200
:10083000CF92DF92EF92FF920F931F93CF93DF93AC
:10084000CDB7DEB727970FB6F894DEBF0FBECDBF8A
:100850008091C21C9091C31C892B09F09FC3809189
:10086000D4089091D508892B09F498C3F89481E0B5
:1008700090E09093C31C8093C21C8FEE92E0F7D45B
:1008800009DD0F2EFBE0CF2EF02D88248A94982CC2
:1008900066246394512C0F2EFBE57F2EF02DCB8226
:1008A0000F2EF7E22F2EF6E03F2EF02D0F2EF6E65C
:1008B000EF2EF4E0FF2EF02DE091C91CF091CA1C40
:1008C0001582828593859093C81C8093C71C38DC61
:1008D0002091C91C3091CA1C8091C71C9091C81CE2
:1008E000D9011B969C938E931A9715968C9190E044
:1008F0008D30910508F04EC3FC018827EE58FF4F5C
:100900008F4F9AC4F901408551856281E45FFE4FA3
:100910008081918175DED0CFD90113961C92809190
:10092000D4089091D50801979093D5088093D40866
:10093000B1DCC2CFF901868197813DDDFC01892BB5
:1009400039F48AEF92E093D485E08093C61CB4CF4B
:100950008381882311F0833079F41F928F9385E38C
:1009600093E09F938F9370D486E08093C61C0F9082
:100970000F900F900F90A0CF848383E08383109219
:10098000C61C9ACFD90116968D919C91179713DDAD
:100990008C01009739F489E893E069D485E080936D
:1009A000C61C8ACFFC0183818330A9F083EC93E0DD
:1009B0005ED4D80113968C911F928F9385E094E0BA
:1009C0009F938F9341D487E08093C61C0F900F9024
:1009D0000F900F9071CFF8018481838383E084832B
:1009E0001092C61C69CF84E0D90113968C9352DC17
:1009F00063CF8091D2089091D308089748F4E0EB38
:100A0000FBE080819181892BE1F0862D952D07C037
:100A100088E194E02CD488E08093C61C4DCFFC0183
:100A2000EE0FFF1FE80FF91FEE0FFF1FE055F44F09
:100A300020813181232B39F001968830910579F797
:100A400002C080E090E02091C41C3091C51C2F5F53
:100A50003F4F3093C51C2093C41CFC01EE0FFF1FB9
:100A6000DF01A80FB91FAA0FBB1FA055B44F1196E5
:100A70003C932E93FD01138212828091D2089091B3
:100A8000D30801969093D3088093D2081092C61C85
:100A90008091C41C9091C51C9F938F93FF92EF92FD
:100AA000D3D30F900F900F900F9006CFD9011696C9
:100AB0008D919C911797B5DCFC01892B21F485E879
:100AC00094E0D5D33EC0828193810097C1F0A0917C
:100AD000C91CB091CA1C2D913C918217930779F0E3
:100AE0009F938F93A7EBB4E0BF93AF93ADD389E00F
:100AF0008093C61C0F900F900F900F9022C084819E
:100B00009581892B81F013821282158214821182C1
:100B100010828091D2089091D30801979093D308C6
:100B20008093D2080EC0A091C91CB091CA1C8D91AF
:100B30009C9111979383828385E013968C931092F6
:100B4000C61CE091C91CF091CA1C8381823009F453
:100B5000B3CEA0DBB1CED90116968D919C9117979B
:100B600060DC8C01009721F481E095E080D3A4CE75
:100B7000FC0184819581892B11F464825582D8010E
:100B800012968D919C911397009739F485E395E027
:100B90006ED3BB81B093C61C8FCE0DDC009739F4A9
:100BA00087E895E064D385E08093C61C85CEFC0180
:100BB0002381253009F080CED80113961C921E9215
:100BC000129715961C921E9214971D921C922091BA
:100BD000D2083091D308215031093093D3082093A3
:100BE000D20821E0238368CE8091D0089091D1086B
:100BF000089748F4E8EDF8E080819181892BD9F0DD
:100C0000462D552D07C080ED95E031D38CE08093C3
:100C1000C61C52CE749EF001759EF00D1124E85250
:100C2000F74F80819181892B41F04F5F5F4F4830B2
:100C3000510581F702C040E050E08091CB1C9091BB
:100C4000CC1C01969093CC1C8093CB1C749EF0011D
:100C5000759EF00D1124E852F74F91838083138223
:100C6000128280E090E0749E9001759E300D1124F8
:100C7000BF01FB01E80FF91FC6A2FC013396EE0F7E
:100C8000FF1FE20FF31FE852F74F91828082FC01B1
:100C90007B96EE0FFF1FE20FF31FE852F74F118212
:100CA000108201968031910521F7749EC001759ED6
:100CB000900D11248852974FFC01EA5AFF4F118280
:100CC00010823296118210828091D0089091D108C2
:100CD00001969093D1088093D0081092C61C809101
:100CE000CB1C9091CC1C9F938F933F922F92ACD2B0
:100CF0000F900F900F900F90DFCDD90116968D9128
:100D00009C911797C9DB8C01FC018281938153DB95
:100D10000115110521F48FE496E0A9D2CDCDD801BB
:100D200012962D913C91139721153105A9F4E0916C
:100D3000C91CF091CA1C8081918113969C938E935B
:100D4000129714966C92149715965C928281F80112
:100D5000E65AFF4F8083B0CDA091C91CB091CA1C48
:100D60004D915C9111972417350739F4F80184816E
:100D700095810196958384839FCD26E013962C93CD
:100D80001397F801EA5AFF4F208131812F5F3F4FBF
:100D9000318320833296608171816F5F7F4F7183D1
:100DA0006083F801268137812F3F3F4F61F0F801C2
:100DB0003896262D352D5B01419151914F3F5F4F64
:100DC000C1F4B50102C020E030E04D915C91119773
:100DD000F901EE0FFF1FE00FF11F5783468377AB3A
:100DE00066AB12964C911297F801E20FF31F46A3DF
:100DF00005C02F5F3F4F20313105F1F612963C912F
:100E00001297FC012281321718F412962C9122833A
:100E100041DA52CDD90116968D919C9117973CDB02
:100E20009D838C83FC0182819381C5DA9A838983B7
:100E30008C819D81892B21F481E896E018D23CCDEC
:100E4000E091C91CF091CA1C80819181AC81BD8167
:100E500012962D913C9113972817390721F085EBB5
:100E600096E005D229CDEC81FD8184819581823087
:100E7000910520F00197958384831ECDEC81FD813F
:100E8000EA5AFF4FA080B180A114B10409F46FC0E9
:100E9000EC81FD81E85AFF4F608171816F5F7F4F68
:100EA0002C813D812A5D3F4FEC81FD81F696AC811E
:100EB000BD8116964C815D814A5A5F4FD12C00E06E
:100EC0001C2DBF83AE83C9012C813D819D838C8302
:100ED000AC81BD814D90BD83AC83411648F46081E7
:100EE0007181AE81BF81DC9011960C91142D10C0E0
:100EF00041120EC0808191816817790740F4AE815C
:100F0000BF81DC9011960C91142DBC0101C0142DF1
:100F100032968E819F8102969F838E83E417F50718
:100F2000B9F63D832C83D90197969C928E92969721
:100F3000D696CC92F901EA5AFF4FC50101979183E9
:100F400080838D2D902F37DAAC81BD81A65ABF4F9B
:100F50002C91E981FA812283EC81FD81D282038385
:100F60001C9321E0DC0113962C9394D9A5CCEC8141
:100F7000FD811382128215821482E65AFF4F80810E
:100F8000A981BA8112968C9397CC81E0F901838371
:100F900081D992CC82E08093C61C8ECC27960FB666
:100FA000F894DEBF0FBECDBFDF91CF911F910F919F
:100FB000FF90EF90DF90CF90BF90AF909F908F9079
:100FC0007F906F905F904F903F902F900895209169
:100FD000C21C3091C31C232B81F0F894E091C91CF2
:100FE000F091CA1C62835187408721E02583E45F2A
:100FF000FE4F91838083F9D801C002DB8091C61C2B
:101000008430A1F08091C01C9091C11C9F938F935C
:101010008FEE96E09F938F9317D18091C01C909193
:10102000C11C0F900F900F900F90089580E090E0FA
:1010300008958091C21C9091C31C892B21F483E0F8
:101040008093C61C0895F894E091C91CF091CA1CC5
:1010500083E08583CAC808952091C21C3091C31CC7
:10106000232B21F483E08093C61C0895F894E0912B
:10107000C91CF091CA1C26E0258397838683B5C8D6
:1010800008958091C21C9091C31C009721F423E025
:101090002093C61C0895F894E091C91CF091CA1CD5
:1010A0008AE08583A2D88091C61C8C30A1F0809103
:1010B000CB1C9091CC1C9F938F9383E197E09F93DF
:1010C0008F93C2D08091CB1C9091CC1C0F900F902D
:1010D0000F900F90089580E090E008952091C21C39
:1010E0003091C31C232B21F483E08093C61C089508
:1010F000F894E091C91CF091CA1C2BE025839783DA
:10110000868373C808952091C21C3091C31C232B81
:1011100021F483E08093C61C0895F894E091C91CE3
:10112000F091CA1C2CE02583978386835EC80895BE
:1011300067D077D086E297E09AD03CC0089584E3E8
:1011400097E095D08091D11C9091D21CC7DF8AE5A1
:1011500097E09F938F9378D00F900F90FFCF91DF00
:101160009093D21C8093D11C8091CB1C9091CC1C6D
:101170009F938F9380E797E09F938F9365D085E847
:1011800097E075D08091D11C9091D21CA7DF8BEA9B
:1011900097E06DD084E690E05FDF8DEB97E067D05D
:1011A0008091D11C9091D21CAEDF0F900F900F90C8
:1011B0000F90FFCFDCDA40E050E061E08FEA98E08A
:1011C00006DF40E050E062E08FE998E000DF26CBE8
:1011D0000895CF93C82F8A3011F48DE0FADFE0EC48
:1011E000F0E0908195FFFDCFC093C600CF910895A8
:1011F000E0ECF0E080818823ECF78091C600089550
:101200001092C50087E68093C400E0ECF0E0808196
:101210008D7F808386E08093C20088E18093C10047
:101220000895E7EDFCE18EE092E09383828380E015
:1012300092E0918380830895EE0FFF1F881F8BBF7C
:101240000790F691E02D1994CF93DF93CDB7DEB7D9
:10125000AE014A5F5F4FFA0161917191AF018091D8
:10126000D91C9091DA1C33D0DF91CF9108950F9360
:101270001F93CF93DF93E091D91CF091DA1C238167
:1012800021FF1BC08C01D0E0C0E0F80181918F01EB
:101290006091D91C7091DA1CDB011896ED91FC91DC
:1012A0001997882331F01995892B79F3DFEFCFEF68
:1012B000ECCF8AE01995892B19F08FEF9FEF02C0D0
:1012C0008D2F9C2FDF91CF911F910F9108952F9219
:1012D0003F924F925F926F927F928F929F92AF92C6
:1012E000BF92CF92DF92EF92FF920F931F93CF9313
:1012F000DF93CDB7DEB72C970FB6F894DEBF0FBEE5
:10130000CDBF7C016B018A01FC01178216828381AB
:1013100081FFB0C1CE0101964C01F7019381F60126
:1013200093FD859193FF81916F01882309F49EC1FC
:10133000853239F493FD859193FF81916F01853258
:1013400021F4B70190E0C7D1E8CF512C312C20E037
:101350002032A0F48B3269F030F4803259F08332BD
:1013600069F420612CC08D3239F0803339F421606A
:1013700026C02260246023C0286021C027FD27C02A
:1013800030ED380F3A3078F426FF06C0FAE05F9E61
:10139000300D1124532E13C08AE0389E300D1124D5
:1013A000332E20620CC08E3221F426FD5FC12064F2
:1013B00006C08C3611F4206802C0883641F4F6016C
:1013C00093FD859193FF81916F018111C1CF982F7A
:1013D0009F7D9554933028F40C5F1F4FFFE3F983F2
:1013E0000DC0833631F0833771F0833509F057C073
:1013F00021C0F801808189830E5F1F4F44244394EC
:10140000512C540114C03801F2E06F0E711CF80128
:10141000A080B18026FF03C0652D70E002C06FEF91
:101420007FEFC5012C874CD12C0183012C852F77B0
:10143000222E16C03801F2E06F0E711CF801A08058
:10144000B18026FF03C0652D70E002C06FEF7FEF13
:10145000C5012C872AD12C012C852068222E8301DE
:1014600023FC19C0832D90E048165906A0F4B7015B
:1014700080E290E030D13A94F5CFF50127FC8591D8
:1014800027FE81915F01B70190E025D131103A9498
:10149000F1E04F1A51084114510479F7DEC0843647
:1014A00011F0893631F5F80127FF07C0608171819D
:1014B000828193810C5F1F4F08C060817181072E6C
:1014C000000C880B990B0E5F1F4F2F76722E97FF23
:1014D00009C090958095709561957F4F8F4F9F4F74
:1014E0002068722E2AE030E0A4012DD1A82EA81881
:1014F00043C0853729F42F7EB22E2AE030E025C084
:10150000F22FF97FBF2E8F36C1F018F4883579F0AD
:10151000ADC0803719F0883721F0A8C02F2F206187
:10152000B22EB4FE0DC08B2D8460B82E09C024FFEE
:101530000AC09F2F9660B92E06C028E030E005C093
:1015400020E130E002C020E132E0F801B7FE07C040
:1015500060817181828193810C5F1F4F06C0608121
:10156000718180E090E00E5F1F4FA401ECD0A82EA7
:10157000A818FB2DFF777F2E76FE0BC0372D3E7F00
:10158000A51450F474FE0AC072FC08C0372D3E7ECC
:1015900005C0BA2C372D03C0BA2C01C0B52C34FFBE
:1015A0000DC0FE01EA0DF11D8081803311F4397EFA
:1015B00009C032FF06C0B394B39404C0832F867869
:1015C00009F0B39433FD12C030FF06C05A2CB31497
:1015D00018F4530C5B18B32CB31460F4B70180E219
:1015E00090E03C8778D0B3943C85F6CFB31410F4E8
:1015F0003B1801C0312C34FF11C0B70180E390E0EB
:101600003C8769D03C8532FF16C031FD03C088E7B6
:1016100090E002C088E590E0B7010CC0832F867887
:1016200051F031FF02C08BE201C080E237FD8DE254
:10163000B70190E050D0A51430F4B70180E390E0FA
:101640004AD05A94F8CFAA94F401EA0DF11D808192
:10165000B70190E040D0A110F6CF332009F45DCE61
:10166000B70180E290E037D03A94F7CFF701868156
:10167000978102C08FEF9FEF2C960FB6F894DEBFD4
:101680000FBECDBFDF91CF911F910F91FF90EF90D3
:10169000DF90CF90BF90AF909F908F907F906F9092
:1016A0005F904F903F902F900895FC0105906150FE
:1016B00070400110D8F7809590958E0F9F1F089568
:1016C000FC016150704001900110D8F78095909511
:1016D0008E0F9F1F08950F931F93CF93DF93FB01EE
:1016E000238121FD03C08FEF9FEF28C022FF16C08A
:1016F00046815781248135814217530744F4A081E4
:10170000B1819D012F5F3F4F318320838C932681D0
:1017100037812F5F3F4F3783268310C0EB01092F9E
:10172000182F0084F185E02D1995892BE1F68E8123
:101730009F8101969F838E83812F902FDF91CF9180
:101740001F910F910895FA01AA27283051F12031F5
:1017500081F1E8946F936E7F6E5F7F4F8F4F9F4F45
:10176000AF4FB1E03ED0B4E03CD0670F781F891F87
:101770009A1FA11D680F791F8A1F911DA11D6A0F55
:10178000711D811D911DA11D20D009F468943F9108
:101790002AE0269F11243019305D3193DEF6CF0107
:1017A0000895462F4770405D4193B3E00FD0C9F7CD
:1017B000F6CF462F4F70405D4A3318F0495D31FD3A
:1017C0004052419302D0A9F7EACFB4E0A69597958D
:1017D000879577956795BA95C9F700976105710563
:1017E00008959B01AC010A2E0694579547953795AD
:1017F0002795BA95C9F7620F731F841F951FA01D07
:061800000895F894FFCFEB
:1018060000000001000000000000F80800000000D1
:10181600000200000000E9080000000066696E642E
:101826004576656E74427949443A2054686520735A
:101836007065636966696564206576656E742049BE
:101846004420697320696E76616C6964210066695B
:101856006E644D75746578427949443A20546865DA
:1018660020737065636966696564206D7574657853
:1018760020494420697320696E76616C6964210091
:101886005461736B5F4372656174653A20466169A2
:101896006C656420746F2063726561746520746181
:1018A600736B2E205468652073797374656D206997
:1018B60073206174206974732070726F636573732B
:1018C600207468726573686F6C642E0054696D6568
:1018D6007220696E697469616C697A656421004F6A
:1018E6005320696E697469616C697A656421004F79
:1018F6005320626567696E7321004B65726E656C75
:101906005F53757370656E645F5461736B3A2050F4
:101916004944206E6F7420666F756E6420696E2070
:10192600676C6F62616C2070726F63657373206C95
:1019360069737421004B65726E656C5F53757370C5
:10194600656E645F5461736B3A20547279696E6791
:1019560020746F2073757370656E642061207461E6
:10196600736B2074686174277320696E20616E2022
:10197600756E73757370656E6461626C65207374E1
:10198600617465202564210A004B65726E656C5F83
:10199600526573756D655F5461736B3A20504944A7
:1019A600206E6F7420666F756E6420696E20676C9A
:1019B6006F62616C2070726F63657373206C6973FC
:1019C6007421004B65726E656C5F526573756D654B
:1019D6005F5461736B3A20547279696E6720746F35
:1019E60020726573756D652061207461736B207458
:1019F6006861742773206E6F742053555350454E9B
:101A0600444544210043555252454E5420535441B7
:101A160054453A2025640A004576656E745F496E22
:101A260069743A204661696C656420746F2063723C
:101A360065617465204576656E742E205468652050
:101A460073797374656D206973206174206974738A
:101A5600206D6178206576656E7420746872657392
:101A6600686F6C642E004576656E745F496E6974A6
:101A76003A2043726561746564204576656E74200C
:101A86002564210A004B65726E656C5F5761697447
:101A96005F4576656E743A204572726F722066698C
:101AA6006E64696E6720726571756573746564200E
:101AB6006576656E7421004B65726E656C5F576165
:101AC60069745F4576656E743A2054686520726560
:101AD60071756573746564206576656E74206973C7
:101AE60020616C7265616479206265696E67207732
:101AF6006169746564206279205049442025640A2E
:101B0600004B65726E656C5F5369676E616C5F450D
:101B160076656E743A204572726F722066696E64DD
:101B2600696E672072657175657374656420657684
:101B3600656E7421004B65726E656C5F5369676EE6
:101B4600616C5F4576656E743A202A5741524E495C
:101B56004E472A20546865207265717565737465F1
:101B660064206576656E74206973206E6F742062DA
:101B760065696E67207761697465642062792061A2
:101B86006E796F6E6521004B65726E656C5F536989
:101B9600676E616C5F4576656E743A204576656E54
:101BA60074206F776E6572277320504944206E6FDC
:101BB6007420666F756E6420696E20676C6F626153
:101BC6006C2070726F63657373206C697374210087
:101BD6004B65726E656C5F4372656174655F4D75CA
:101BE6007465783A204661696C656420746F206379
:101BF6007265617465204D757465782E205468652C
:101C06002073797374656D2069732061742069741B
:101C160073206D6178206D757465782074687265BF
:101C260073686F6C642E004B65726E656C5F4372F1
:101C3600656174655F4D757465783A2043726561B8
:101C4600746564204D75746578202564210A004BFF
:101C560065726E656C5F4C6F636B5F4D757465780E
:101C66003A204572726F722066696E64696E6720EB
:101C7600726571756573746564206D757465782118
:101C8600004B65726E656C5F556E6C6F636B5F4D76
:101C9600757465783A204572726F722066696E6453
:101CA600696E6720726571756573746564206D75FC
:101CB60074657821004B65726E656C5F556E6C6F4E
:101CC600636B5F4D757465783A20546865206F774D
:101CD6006E6572206973206E6F7420746865206368
:101CE600757272656E742070726F636573730043EC
:101CF600726561746564205049443A2025640A007F
:101D060043726561746564204576656E743A202574
:101D1600640A0043726561746564204D7574657864
:101D26003A2025640A005354444F55542D3E5541DC
:101D3600525421007461736B203220737461727483
:101D4600656420616E6420676F6E6E61206C6F63E0
:101D56006B20746865206D7574007461736B203236
:101D660020676F7420696E746F206D7574657800D6
:101D76006C617374206D757465782069642069736D
:101D86002025640A007461736B20312073746172BC
:101D960074656420616E6420676F6E6E61206C6F7F
:101DA600636B20746865206D7574007461736B20B5
:101DB600312077696C6C20736C6565700074617393
:101DC6006B2031206973206177616B652C20616E11
:101DD600642077696C6C20756E6C6F636B206D7513
:101DE600740050494E47210053555350454E4449BF
:101DF6004E4720504F4E472100524553554D494EB0
:101E06004720504F4E47210057616974696E67201D
:101E1600666F72206576656E742025642E2E2E0AF6
:101E2600005369676E616C20666F72206576656E19
:101E36007420256420726563656976656421205483
:101E46006F74616C206576656E74733A2025640A3A
:101E56000A0A005369676E616C20666F72206576A8
:101E6600656E7420256420726563656976656421F4
:101E760020546F74616C206576656E74733A202504
:101E8600640A005369676E616C6C696E67206576DB
:101E9600656E742025642E2E2E0A005349474E4146
:101EA6004C4544210048656C6C6F2066726F6D204E
:101EB60031210048656C6C6F2066726F6D2032218F
:101EC6000048656C6C6F2066726F6D2033210000D0
:00000001FF
