:100000007EC000009DC000009BC0000099C00000A1
:1000100097C0000095C0000093C0000091C0000090
:100020008FC000008DC000008BC0000089C00000A0
:1000300087C0000085C0000083C0000081C00000B0
:100040007FC00000CCC100007BC0000079C0000070
:1000500077C0000075C0000073C0000071C00000D0
:100060006FC000006DC000006BC0000069C00000E0
:1000700067C0000065C0000063C0000061C00000F0
:100080005FC000005DC000005BC0000059C0000000
:1000900057C0000055C0000053C0000051C0000010
:1000A0004FC000004DC000004BC0000049C0000020
:1000B00047C0000045C0000043C0000041C0000030
:1000C0003FC000003DC000003BC0000039C0000040
:1000D00037C0000035C0000033C0000031C0000050
:1000E0002FC00000170857051708600538067C0662
:1000F00097069B069D06E006140716078E07112437
:100100001FBECFEFD1E2DEBFCDBF00E00CBF12E0DB
:10011000A0E0B2E0ECE8F2E100E00BBF02C0079023
:100120000D92A832B107D9F726E1A8E2B2E001C0EA
:100130001D92A133B207E1F70E94BF080C94440955
:100140005FCF0F921F922F923F924F925F926F92CA
:100150007F928F929F92AF92BF92CF92DF92EF9257
:10016000FF920F931F932F933F934F935F936F9340
:100170007F938F939F93AF93BF93CF93DF93EF932F
:10018000FF93FCB7FF93FFB7FF93EDB7FEB7E09384
:100190002716F0932816E0912116F0912216EDBF54
:1001A000FEBFFF91FFBFFF91FCBFFF91EF91DF9179
:1001B000CF91BF91AF919F918F917F916F915F91FF
:1001C0004F913F912F911F910F91FF90EF90DF90F2
:1001D000CF90BF90AF909F908F907F906F905F90E7
:1001E0004F903F902F901F900F9018950F921F9255
:1001F0002F923F924F925F926F927F928F929F9237
:10020000AF92BF92CF92DF92EF92FF920F931F9324
:100210002F933F934F935F936F937F938F939F930E
:10022000AF93BF93CF93DF93EF93FF93FCB7FF930D
:10023000FFB7FF93EDB7FEB7E0932116F0932216B8
:10024000E0912716F0912816EDBFFEBFFF91FFBF8A
:10025000FF91FCBFFF91EF91DF91CF91BF91AF91E3
:100260009F918F917F916F915F914F913F912F91CE
:100270001F910F91FF90EF90DF90CF90BF90AF90C4
:100280009F908F907F906F905F904F903F902F90B6
:100290001F900F9008951816190684F520913A05BD
:1002A00030913B052817390799F021E030E06EE0E6
:1002B00071E0269FF001279FF00D369FF00D11246D
:1002C000E65CFA4F408151814817590779F402C022
:1002D00020E030E04EE051E0249FC001259F900DCA
:1002E000349F900D1124865C9A4F08952F5F3F4FE5
:1002F00020313105F1F680E090E0089580E090E053
:100300000895009751F020910A0530910B052817A8
:100310003907C1F021E030E006C081E0809320166B
:1003200080E090E00895F901EE0FFF1FE20FF31F48
:10033000EE0FFF1FE65FFA4F4081518148175907C2
:1003400069F402C020E030E0C901880F991F820FD4
:10035000931F880F991F865F9A4F08952F5F3F4F15
:100360002830310501F789E08093201680E090E085
:100370000895009759F020913202309133022817E6
:100380003907B9F021E030E06BE506C081E08093E9
:10039000201680E090E00895629FF001639FF00DC9
:1003A0001124EE5CFD4F408151814817590761F4DB
:1003B00002C020E030E04BE5429FC001439F900D1A
:1003C00011248E5C9D4F08952F5F3F4F28303105DB
:1003D00019F78DE08093201680E090E008951F9239
:1003E0000F920FB60F9211248F939F938091280242
:1003F00090912902019690932902809328029F915F
:100400008F910F900FBE0F901F901895809128022A
:1004100090912902892B09F46FC080E090E02EE0D2
:1004200031E061E0829FF001839FF00D929FF00D1B
:100430001124E65CFA4F4381443029F5A09128024B
:10044000B0912902829FF001839FF00D929FF00DE1
:100450001124E65CFA4F468157814A1B5B0B578398
:1004600046834681578114161506ECF1829FF001F0
:10047000839FF00D929FF00D1124E65CFA4F638389
:100480001782168230C0829FF001839FF00D929FE9
:10049000F00D1124E65CFA4F4481443021F5A0911F
:1004A0002802B0912902829FF001839FF00D929F54
:1004B000F00D1124E65CFA4F468157814A1B5B0B15
:1004C00057834683468157811416150664F0829F30
:1004D000F001839FF00D929FF00D1124E65CFA4F1E
:1004E00064831782168201968031910509F09ACFB4
:1004F00010922902109228020895CF93DF9320E1F1
:1005000030E0AFEFBFEF6BE070E04EE051E0809184
:1005100030029091310201968F70992790933102A9
:10052000809330028091300290913102849FF001DB
:10053000859FF00D949FF00D1124E65CFA4F8381A6
:10054000813029F58091300290913102849FF00131
:10055000859FF00D949FF00D1124E65CFA4F828187
:1005600090E0861797079CF48091300290913102B9
:10057000849FF001859FF00D949FF00D1124E65C9F
:10058000FA4F628170E0A0913002B09131022150A7
:10059000310909F0BCCFAF3F8FEFB80711F5789460
:1005A000CEE0D1E00CC080913002909131020196F2
:1005B0008F709927909331028093300227DF8091CA
:1005C0003002909131028C9FF0018D9FF00D9C9F25
:1005D000F00D1124E65CFA4F8381813021F7F89405
:1005E00004C0B0933102A0933002209130023091C8
:1005F00031028EE091E0289FF001299FF00D389F95
:10060000F00D1124E65CFA4FF0932416E0932316C4
:1006100082859385909322168093211682E08383AE
:10062000DF91CF910895EF92FF920F931F93CF9395
:10063000DF93EC0180912E0290912F02409749F0B8
:1006400080913D058823D9F021E030E0AEE0B1E0B3
:1006500004C084E08093201662C02A9FF0012B9F83
:10066000F00D3A9FF00D1124E65CFA4F9381992327
:1006700041F02F5F3F4F2031310579F702C020E074
:1006800030E080912E0290912F02019690932F02DC
:1006900080932E028EE091E0289FF001299FF00DBB
:1006A000389FF00D11249F012B5B394F8F010A5B9E
:1006B0001A4F80E091E0D8018C011D92015010404A
:1006C000E1F7E65CFA4FDF01A55FBE4F83E598E0F6
:1006D0008C93D90111979C9311971C921197CC93ED
:1006E0001197DC9311971C9280911A1690911B160A
:1006F000019690931B1680931A16918380836283D0
:1007000051874087158281E08383285231093387DE
:100710002287E45FFE4FD183C08310922016DF91C1
:10072000CF911F910F91FF90EF90089580912C022F
:1007300090912D02089748F480910A0590910B053D
:10074000892BC9F081E090E004C088E080932016F6
:100750000895FC01EE0FFF1FE80FF91FEE0FFF1FBA
:10076000E65FFA4F20813181232B39F001968830E2
:10077000910579F702C080E090E020911E1630913B
:100780001F162F5F3F4F30931F1620931E16FC013C
:10079000EE0FFF1FDF01A80FB91FAA0FBB1FA65F37
:1007A000BA4F11963C932E93FD01138212828091D1
:1007B0002C0290912D02019690932D0280932C0291
:1007C000109220160895CF9380912A0290912B02C7
:1007D000089750F48091320290913302892BC9F02E
:1007E00041E050E02BE504C08CE0809320166BC004
:1007F000249FF001259FF00D1124EE5CFD4F8081B8
:100800009181892B41F04F5F5F4F4830510581F74F
:1008100002C040E050E08091251690912616019686
:1008200090932616809325162BE5249FF001259F93
:10083000F00D1124EE5CFD4F9183808313821282B0
:1008400080E090E06BE5649F9001659F300D11247E
:10085000DF01CBE06FEF7FEFFD01E80FF91FC6A3CB
:10086000FC013396EE0FFF1FE20FF31FEE5CFD4F0E
:1008700071836083FC017B96EE0FFF1FE20FF31F75
:10088000EE5CFD4F1182108201968031910521F7B7
:100890002BE5249FC001259F900D11248E5C9D4F58
:1008A000FC01EA5AFF4F11821082329611821082A7
:1008B00080912A0290912B02019690932B028093B3
:1008C0002A0210922016CF910895E1E8F0E080818D
:1008D0008460808380818C7F808380818860808336
:1008E00080818C7E808381E792E090938900809361
:1008F00088001092850010928400EFE6F0E080817D
:1009000082608083089510922F0210922E0210921E
:100910002D0210922C0210921D1610921C1610928D
:100920002902109228021092310210923002109285
:100930001B1610921A1610921F1610921E16109265
:100940002616109225161092201680EE90E1EAE30A
:10095000F5E0DF019C011D9221503040E1F780E07D
:1009600090E02EE031E0829FF001839FF00D929F96
:10097000F00D1124E65CFA4F138201968031910547
:1009800091F780E3EAE0F5E0DF011D928A95E9F74F
:1009900080E090E0FC01EE0FFF1FE80FF91FEE0F63
:1009A000FF1FE65FFA4F1182108201968830910591
:1009B00089F788ED92E0E2E3F2E0DF019C011D920D
:1009C00021503040E1F780E090E0FC01EE0FFF1F86
:1009D000E80FF91FEE0FFF1FE65FFA4F118210823A
:1009E00001968830910589F708952F923F924F9292
:1009F0005F926F927F928F929F92AF92BF92CF92AF
:100A0000DF92EF92FF920F931F93CF93DF9380912A
:100A10001C1690911D16892B09F00FC380912E0290
:100A200090912F02892B09F408C3F89481E090E09B
:100A300090931D1680931C1648DF5FDD6894552443
:100A400051F8992493940F2EFBE08F2EF02D7724EC
:100A50007394612C0F2EFBE5CF2EF02D412C312C01
:100A6000E0912316F0912416158282859385909348
:100A700022168093211665DBE0912316F09124164F
:100A8000809121169091221693878287BFDCC091B6
:100A90002316D09124168D8190E08D30910508F0B9
:100AA000C9C2FC018827EE58FF4F8F4FB5C3488558
:100AB00059856A81C45FDE4F88819981B4DDD0CFCA
:100AC00010E0C12F20E0D22FCC9EF001CD9EF00D82
:100AD0001124EE5CFD4F22813381E0912316F091C9
:100AE0002416808191812817390709F0ACC0CC9E6B
:100AF000F001CD9EF00D1124E857FD4F80819181CA
:100B0000892B09F495C080E092E08ED3CC9EF00151
:100B1000CD9EF00D1124E657FD4F608171816F5F0E
:100B20007F4FE42CF32C182D242D332DCC9EA001C7
:100B3000CD9E500D1124CA018E5C9D4FFC01E20F29
:100B4000F31FE6A1E117C8F4FC01E20FF31F16A1A1
:100B5000F9017B96EE0FFF1FE40FF51FEE5CFD4FD2
:100B600060817181F9013396EE0FFF1FE40FF51FCD
:100B7000EE5CFD4FE080F18028C0FC01E20FF31F26
:100B8000E6A11E1322C0F9017B96EE0FFF1FE40FB2
:100B9000F51FEE5CFD4F0190F081E02D6E177F0791
:100BA000A0F4F9017B96EE0FFF1FE40FF51FEE5C3A
:100BB000FD4F60817181F9013396EE0FFF1FE40F45
:100BC000F51FEE5CFD4FE080F1802F5F3F4F20313D
:100BD000310509F0B3CFCC9EC001CD9E900D1124FC
:100BE000DC01AE5CBD4F5D01EFEFFFEF9796FC932C
:100BF000EE939697D6968C92D697FD01EA5AFF4FC0
:100C00001182108280819181019791838083C70135
:100C100042DBD5011396FC92EE921297F501E65A4B
:100C2000FF4F1083FC01938285E192E0FDD20BC05F
:100C3000CC9EF001CD9EF00D1124EE5CFD4F138291
:100C40001282158214822196C830D10509F03CCF5A
:100C5000E0912316F0912416138280912E02909138
:100C60002F02019790932F0280932E0246DCF8CE3C
:100C70008E819F8110DB009721F485E08093201600
:100C800031C0FC01A381AA2371F0A33061F020914F
:100C9000340230913502608171812617370799F04F
:100CA000272D362D04C086E0809320161BC0C29EDF
:100CB000F001C39EF00D1124EE5CFD4F4281538183
:100CC0004617570721F486E0809320160BC02F5F4C
:100CD0003F4F2830310559F7FC01A48323E02383DB
:100CE00010922016E0912316F09124168381823011
:100CF00009F4B6CE02DCB4CE8E819F81CCDA0097A7
:100D000021F485E08093201610C0DC0113962C910D
:100D1000233021F087E08093201607C0FC01248156
:100D2000238323E0248310922016E7DB99CE84E00E
:100D30008B83E3DB95CEFADC93CE8E819F81E1DA63
:100D4000FC01892B99F182819381009769F0A09130
:100D50002316B09124162D913C918217930721F010
:100D600089E08093201622C084819581892B81F0AF
:100D700013821282158214821182108280912C02B9
:100D800090912D02019790932D0280932C020EC01A
:100D9000A0912316B09124168D919C911197938365
:100DA000828385E013968C9310922016E09123168F
:100DB000F09124168381823009F452CE9EDB50CE0E
:100DC0008E819F819EDAEC01892B61F18C819D815E
:100DD000892B11F47C826D828A819B81009719F4A2
:100DE000809220161FC057DA009721F485E0809387
:100DF000201618C0DC0113962C911397253091F41E
:100E00001B821A821D821C821982188220912C0258
:100E100030912D022150310930932D0220932C0264
:100E200013969C926ADB1CCECEDC1ACE8E819F81FB
:100E3000A0DAEC018A819B812EDA209709F410CE8A
:100E40002A813B812115310579F4E0912316F09137
:100E50002416808191819B838A837C826D8282812A
:100E6000C65ADF4F8883FCCDA0912316B09124167B
:100E70004D915C9111972417350731F48C819D8138
:100E800001969D838C83ECCD26E013962C931397CB
:100E9000FE01EA5AFF4F208131812F5F3F4F31839E
:100EA00020833296608171816F5F7F4F7183608391
:100EB0002E813F812F3F3F4F51F0FE013896272D65
:100EC000362D419151914F3F5F4FB9F402C020E060
:100ED00030E04D915C911197F901EE0FFF1FEC0F7F
:100EE000FD1F5783468377AB66AB12964C911297E2
:100EF000FE01E20FF31F46A305C02F5F3F4F2031D5
:100F00003105F9F612963C911297FC0122813217B5
:100F100018F412962C912283F0DAA2CD8E819F8153
:100F200028DAEC018A819B81B6D98C01209709F4DB
:100F300097CDE0912316F0912416808191812A812A
:100F40003B812817390709F08BCD8C819D81823038
:100F5000910520F001979D838C8382CDFE01EA5A92
:100F6000FF4FA080B180A114B10409F455C032969E
:100F7000608171816F5F7F4FCE018696B297DE01EF
:100F80001696AE014A5A5F4FE12CD12CF82C9E01E7
:100F9000EC0129902F1440F460817181EC9011963E
:100FA000DC901197F22C0FC02F100DC08081918121
:100FB0006817790738F4EC901196DC901197F22CB1
:100FC000BC0101C0F22C32961296E417F50709F71E
:100FD000E9012FEF3FEF3FA32EA38EAAFE01EA5AAD
:100FE000FF4F31E0A31AB108B182A0828E2D9D2D52
:100FF00052D9FE01E65AFF4F2081D80112962C9358
:10100000EA82DB82F082FC019382E0912316F09168
:101010002416938272DA24CD1B821A821D821C82CE
:10102000C65ADF4F8881D80112968C9319CD9B82C6
:1010300064DA16CD5092201613CDDF91CF911F9117
:101040000F91FF90EF90DF90CF90BF90AF909F9067
:101050008F907F906F905F904F903F902F9008956A
:1010600020911C1630911D16232B81F0F894E091ED
:101070002316F091241662835187408721E025834F
:10108000E45FFE4F91838083B1D801C0CCDA8091B8
:101090002016843029F080911A1690911B1608951D
:1010A00080E090E0089580911C1690911D16892B88
:1010B00021F483E0809320160895F894E09123169C
:1010C000F091241683E0858391C8089580911C16C1
:1010D00090911D16892B21F483E0809320160895AA
:1010E000F894E0912316F091241682E085837EC85F
:1010F000089580911C1690911D16892B49F0F89443
:10110000E0912316F09124168AE085836FD801C000
:101110005ADB809120168C3029F080912516909111
:101120002616089580E090E0089520911C163091D5
:101130001D16232B21F483E0809320160895F89444
:10114000E0912316F09124162BE025839783868364
:101150004DC8089520911C1630911D16232B21F4A3
:1011600083E0809320160895F894E0912316F0917F
:1011700024162CE025839783868338C808953BC0C6
:1011800008952A9A2A988FCF0895299A299840E09D
:1011900050E062E081EC98E063DF299A2998809121
:1011A000291690912A16C1DF299A2998809129162B
:1011B00090912A16BADF299A299875CF08952B9A0B
:1011C0002B988091291690912A16AFDF2B9A2B9895
:1011D00040E050E061E085EC98E042DF77DF2B9A59
:1011E0002B988091291690912A16B4DF6FDF2B9AE5
:1011F0002B9859CF0895219A229A239A84DB79DF7C
:1012000090932A168093291640E050E063E08FED1A
:1012100098E026DFEACB0895EE0FFF1F881F8BBFF3
:101220000790F691E02D19940F931F93CF93DF93BE
:10123000E0912D16F0912E16238121FF1BC08C0109
:10124000D0E0C0E0F80181918F0160912D1670917E
:101250002E16DB011896ED91FC911997882331F039
:101260001995892B79F3DFEFCFEFECCF8AE0199551
:10127000892B19F08FEF9FEF02C08D2F9C2FDF91EC
:0C128000CF911F910F910895F894FFCFBB
:10128C00736F6D657468696E672069732077616927
:10129C0074696E670074617267657420702069737D
:0812AC0020726561646400001A
:00000001FF
