S00A000070322E7372656378
S11300007EC000009DC000009BC0000099C000009D
S113001097C0000095C0000093C0000091C000008C
S11300208FC000008DC000008BC0000089C000009C
S113003087C0000085C0000083C0000081C00000AC
S11300407FC00000D4C100007BC0000079C0000064
S113005077C0000075C0000073C0000071C00000CC
S11300606FC000006DC000006BC0000069C00000DC
S113007067C0000065C0000063C0000061C00000EC
S11300805FC000005DC000005BC0000059C00000FC
S113009057C0000055C0000053C0000051C000000C
S11300A04FC000004DC000004BC0000049C000001C
S11300B047C0000045C0000043C0000041C000002C
S11300C03FC000003DC000003BC0000039C000003C
S11300D037C0000035C0000033C0000031C000004C
S11300E02FC000000809A3050809AD058806E40629
S11300F0140719071B077007B907BB074708112422
S11301001FBECFEFD1E2DEBFCDBF00E00CBF17E0D2
S1130110A0E0B2E0EEE5FBE100E00BBF02C0079017
S11301200D92A433B107D9F72BE1A4E3B7E001C0E2
S11301301D92AF33B207E1F70E94360A0C94AD0D5D
S11301405FCF0F921F922F923F924F925F926F92C6
S11301507F928F929F92AF92BF92CF92DF92EF9253
S1130160FF920F931F932F933F934F935F936F933C
S11301707F938F939F93AF93BF93CF93DF93EF932B
S1130180FF93FCB7FF93FFB7FF93EDB7FEB7E09380
S1130190331BF093341BE0912D1BF0912E1BEDBF0C
S11301A0FEBFFF91FFBFFF91FCBFFF91EF91DF9175
S11301B0CF91BF91AF919F918F917F916F915F91FB
S11301C04F913F912F911F910F91FF90EF90DF90EE
S11301D0CF90BF90AF909F908F907F906F905F90E3
S11301E04F903F902F901F900F9018950F921F9251
S11301F02F923F924F925F926F927F928F929F9233
S1130200AF92BF92CF92DF92EF92FF920F931F9320
S11302102F933F934F935F936F937F938F939F930A
S1130220AF93BF93CF93DF93EF93FF93FCB7FF9309
S1130230FFB7FF93EDB7FEB7E0932D1BF0932E1B92
S1130240E091331BF091341BEDBFFEBFFF91FFBF64
S1130250FF91FCBFFF91EF91DF91CF91BF91AF91DF
S11302609F918F917F916F915F914F913F912F91CA
S11302701F910F91FF90EF90DF90CF90BF90AF90C0
S11302809F908F907F906F905F904F903F902F90B2
S11302901F900F9008951816190684F52091460AA8
S11302A03091470A2817390799F021E030E06EE0D1
S11302B071E0269FF001279FF00D369FF00D112469
S11302C0EA5BF54F408151814817590779F402C020
S11302D020E030E04EE051E0249FC001259F900DC6
S11302E0349F900D11248A5B954F08952F5F3F4FE3
S11302F020313105F1F680E090E0089580E090E04F
S11303000895009751F02091160A3091170A281782
S11303103907E1F021E030E00AC08CE192E00E946C
S1130320E30A81E080932C1B80E090E00895F901BA
S1130330EE0FFF1FE20FF31FEE0FFF1FEA5EF54FF4
S1130340408151814817590769F402C020E030E028
S1130350C901880F991F820F931F880F991F8A5E06
S1130360954F08952F5F3F4F2830310501F789E0FD
S113037080932C1B80E090E00895009759F0209121
S11303803E0730913F0728173907D9F021E030E0C4
S11303906BE50AC08EE492E00E94E30A81E0809358
S11303A02C1B80E090E00895629FF001639FF00DA4
S11303B01124E25CF84F408151814817590761F4D8
S11303C002C020E030E04BE5429FC001439F900D06
S11303D01124825C984F08952F5F3F4F28303105D8
S11303E019F78DE080932C1B80E090E008951F9214
S11303F00F920FB60F9211248F939F93809134071D
S113040090913507019690933507809334079F9117
S11304108F910F900FBE0F901F9018958091340705
S113042090913507892B09F46FC080E090E02EE0AD
S113043031E061E0829FF001839FF00D929FF00D07
S11304401124EA5BF54F4381443029F5A091340728
S1130450B0913507829FF001839FF00D929FF00DBC
S11304601124EA5BF54F468157814A1B5B0B578386
S113047046834681578114161506ECF1829FF001DC
S1130480839FF00D929FF00D1124EA5BF54F638377
S11304901782168230C0829FF001839FF00D929FD5
S11304A0F00D1124EA5BF54F4481443021F5A0910D
S11304B03407B0913507829FF001839FF00D929F1E
S11304C0F00D1124EA5BF54F468157814A1B5B0B03
S11304D057834683468157811416150664F0829F1C
S11304E0F001839FF00D929FF00D1124EA5BF54F0C
S11304F064831782168201968031910509F09ACFA0
S113050010923507109234070895CF93DF9320E1BA
S113051030E0AFEFBFEF6BE070E04EE051E0809170
S11305203C0790913D0701968F70992790933D0762
S113053080933C0780913C0790913D07849FF00194
S1130540859FF00D949FF00D1124EA5BF54F838194
S1130550813029F580913C0790913D07849FF001FB
S1130560859FF00D949FF00D1124EA5BF54F828175
S113057090E0861797079CF480913C0790913D0783
S1130580849FF001859FF00D949FF00D1124EA5B88
S1130590F54F628170E0A0913C07B0913D07215076
S11305A0310909F0BCCFAF3F8FEFB80711F578944C
S11305B0CEE0D1E00CC080913C0790913D070196BC
S11305C08F70992790933D0780933C0727DF809194
S11305D03C0790913D078C9FF0018D9FF00D9C9FEF
S11305E0F00D1124EA5BF54F8381813021F7F894F3
S11305F004C0B0933D07A0933C0720913C07309181
S11306003D078EE091E0289FF001299FF00D389F6F
S1130610F00D1124EA5BF54FF093301BE0932F1B90
S11306208285938590932E1B80932D1B82E0838378
S1130630DF91CF910895CF92DF92EF92FF920F93C3
S11306401F93CF93DF93DC0180913A0790913B078E
S1130650409749F08091490A8823F1F021E030E085
S1130660CEE0D1E007C080E892E0ADD784E080938B
S11306702C1B6EC02C9FF0012D9FF00D3C9FF00DA4
S11306801124EA5BF54F9381992341F02F5F3F4F8B
S11306902031310579F702C020E030E080913A073B
S11306A090913B07019690933B0780933A07EEE0C5
S11306B0F1E02E9FC0012F9F900D3E9F900D1124BD
S11306C0EC01CF5AD44F8C010E5A154FC12CDD24A6
S11306D0D394F8018601119201501040E1F7CE0144
S11306E00CE519E008830197FC011083319710820F
S11306F03197A0833197B0833197108290E0929321
S11307009F5F9232E1F78091261B9091271B0196FF
S11307109093271B8093261B0EE011E0209FF0018D
S1130720219FF00D309FF00D1124EA5BF54F91836A
S11307308083628351874087158281E08383A897F1
S1130740D387C287E45FFE4FB183A08310922C1B32
S1130750DF91CF911F910F91FF90EF90DF90CF9099
S113076008958091380790913907089748F480914B
S1130770160A9091170A892BE1F081E090E007C0F6
S11307808CEC92E020D788E080932C1B0895FC0128
S1130790EE0FFF1FE80FF91FEE0FFF1FEA5EF54F84
S11307A020813181232B39F001968830910579F726
S11307B002C080E090E020912A1B30912B1B2F5F18
S11307C03F4F30932B1B20932A1BFC01EE0FFF1F7E
S11307D0DF01A80FB91FAA0FBB1FAA5EB54F119660
S11307E03C932E93FD0113821282809138079091DD
S11307F039070196909339078093380710922C1B80
S113080080912A1B90912B1B9F938F938AE193E0F5
S11308109F938F93C5D60F900F900F900F900895CC
S1130820CF938091360790913707089750F48091C1
S11308303E0790913F07892BE1F041E050E02BE522
S113084007C089E393E0BFD68CE080932C1B7AC069
S1130850249FF001259FF00D1124E25CF84F808164
S11308609181892B41F04F5F5F4F4830510581F7EB
S113087002C040E050E08091311B9091321B019600
S11308809093321B8093311B2BE5249FF001259F0D
S1130890F00D1124E25CF84F91838083138212825D
S11308A080E090E06BE5649F9001659F300D11241A
S11308B0DF01CBE06FEF7FEFFD01E80FF91FC6A367
S11308C0FC013396EE0FFF1FE20FF31FE25CF84FBB
S11308D071836083FC017B96EE0FFF1FE20FF31F11
S11308E0E25CF84F1182108201968031910521F764
S11308F02BE5249FC001259F900D1124825C984F05
S1130900FC01EA5AFF4F1182108232961182108242
S1130910809136079091370701969093370780931B
S1130920360710922C1B8091311B9091321B9F93A0
S11309308F9380E993E09F938F9332D60F900F901B
S11309400F900F90CF910895E1E8F0E080818560E9
S1130950808380818D7F8083808188608083808193
S11309608C7E80838DE990E0909389008093880049
S11309701092850010928400EFE6F0E0808182609E
S1130980808388EB93E01FC6089510923B07109272
S11309903A0710923907109238071092291B1092C7
S11309A0281B109235071092340710923D071092BD
S11309B03C071092271B1092261B10922B1B10929F
S11309C02A1B1092321B1092311B10922C1B80EEAA
S11309D090E1E6E4FAE0DF019C011D9221503040F1
S11309E0E1F780E090E02EE031E0829FF001839F08
S11309F0F00D929FF00D1124EA5BF54F13820196DE
S1130A008031910591F780E3E6E1FAE0DF011D9280
S1130A108A95E9F780E090E0FC01EE0FFF1FE80FF4
S1130A20F91FEE0FFF1FEA5EF54F11821082019647
S1130A308830910589F788ED92E0EEE3F7E0DF0175
S1130A409C011D9221503040E1F780E090E0FC01D0
S1130A50EE0FFF1FE80FF91FEE0FFF1FEA5EF54FC1
S1130A601182108201968830910589F78BEC93E00E
S1130A70AAC508952F923F924F925F926F927F92F0
S1130A808F929F92AF92BF92CF92DF92EF92FF929A
S1130A900F931F93CF93DF9300D000D0CDB7DEB771
S1130AA08091281B9091291B892B09F0B9C380914F
S1130AB03A0790913B07892B09F4B2C3F89481E07B
S1130AC090E09093291B8093281B3EDF8BED93E0ED
S1130AD07AD51BDD6894442441F8212C88248A9417
S1130AE0982C77247394612C0F2EFBE5CF2EF02DD8
S1130AF0312C522CE0912F1BF091301B15828285F2
S1130B00938590932E1B80932D1B1BDBE0912F1B51
S1130B10F091301B80912D1B90912E1B938782871F
S1130B207DDC20912F1B3091301BD90115968C91BF
S1130B3090E08D30910508F070C3FC018827EE58D1
S1130B40FF4F8F4F25C5F901408551856281E45FD0
S1130B50FE4F808191816FDDCDCFE12CF22C0BE033
S1130B60DD24D394FA82E98229813A81C29EF0017C
S1130B70C39EF00D1124E25CF84F22813381E09191
S1130B802F1BF091301B808191812817390709F0C0
S1130B90A7C089819A81C89EF001C99EF00D1124D5
S1130BA0EC56F84F80819181892B09F48CC0A9817E
S1130BB0BA81CA9EF001CB9EF00D1124EA56F84F7B
S1130BC0608171816F5F7F4FE32CF52C102F232DF3
S1130BD0352DCA9EA001CB9E500D1124CA01825C02
S1130BE0984FFC01E20FF31FE6A1E117C8F4FC01E2
S1130BF0E20FF31F16A1F9017B96EE0FFF1FE40F1E
S1130C00F51FE25CF84F60817181F9013396EE0FB4
S1130C10FF1FE40FF51FE25CF84FE080F18028C06D
S1130C20FC01E20FF31FE6A11E1322C0F9017B961B
S1130C30EE0FFF1FE40FF51FE25CF84F0190F08107
S1130C40E02D6E177F07A0F4F9017B96EE0FFF1FCE
S1130C50E40FF51FE25CF84F60817181F90133966E
S1130C60EE0FFF1FE40FF51FE25CF84FE080F18008
S1130C702F5F3F4F2031310509F0B3CFBA83A983E9
S1130C80CA9EC001CB9E900D1124FC01E25CF84F7A
S1130C905F0197A286A206ABEA5AFF4F1182108227
S1130CA080819181019791838083C701F4DAD50112
S1130CB01396FC92EE921297F501E65AFF4F1083B9
S1130CC0FC01D3820DC029813A81C29EF001C39EEA
S1130CD0F00D1124E25CF84F138212821582148203
S1130CE089819A8101969A838983089709F03CCF78
S1130CF0E0912F1BF091301B138280913A07909161
S1130D003B07019790933B0780933A07FEDBF2CEB3
S1130D10D90116968D919C911797BDDADC01892B28
S1130D2039F486EE93E04FD485E080932C1BE2CE19
S1130D3013966C911397662379F0633069F02091D0
S1130D404007309141078D919C91119728173907DD
S1130D50F1F0272D362D0FC01F926F93A1E2B4E05E
S1130D60BF93AF931DD486E080932C1B0F900F90FC
S1130D700F900F90BFCEC29EF001C39EF00D1124C0
S1130D80E25CF84F428153814817590779F41F9266
S1130D906F93A1E2B4E0BF93AF9302D486E0809353
S1130DA02C1B0F900F900F900F90A4CE2F5F3F4FEE
S1130DB02830310501F714966C93149783E0139649
S1130DC08C9310922C1B96CED90116968D919C91E2
S1130DD0179761DA8C01009739F485E794E0F3D32F
S1130DE085E080932C1B86CEFC0183818330A9F09F
S1130DF08FEA94E0E8D3D80113968C911F928F93D5
S1130E00A1EFB4E0BF93AF93CBD387E080932C1BC7
S1130E100F900F900F900F906DCE8481838383E0A9
S1130E20848310922C1B66CE84E0F90183836DDBEE
S1130E3061CE97DC5FCED90116968D919C91179760
S1130E4060DAFC01892B21F484E095E0BCD33EC038
S1130E50828193810097C1F0A0912F1BB091301B28
S1130E602D913C918217930779F09F938F93A6E37A
S1130E70B5E0BF93AF9394D389E080932C1B0F907C
S1130E800F900F900F9022C084819581892B81F05F
S1130E901382128215821482118210828091380783
S1130EA090913907019790933907809338070EC0C2
S1130EB0A0912F1BB091301B8D919C91119793831E
S1130EC0828385E013968C9310922C1BE0912F1B48
S1130ED0F091301B8381823009F40CCE16DB0ACEEC
S1130EE0D90116968D919C9117970BDA8C01009776
S1130EF021F480E895E067D33AC0FC0184819581B0
S1130F00892B11F474826582D80112968D919C917B
S1130F101397009739F484EB95E055D38BE08093D5
S1130F202C1B25C0B8D9009739F486E096E04BD342
S1130F3085E080932C1B1BC0FC0123812530B9F470
S1130F40D80113961C921E92129715961C921E920B
S1130F5014971D921C922091380730913907215023
S1130F603109309339072093380721E02383CDDA00
S1130F70C1CD56DCBFCDF90186819781FED98C01A4
S1130F80DC0112968D919C91139785D90115110559
S1130F9021F48FE496E017D3ADCDF801228133819B
S1130FA021153105B1F4E0912F1BF091301B8081A4
S1130FB09181D80113969C938E93129714967C92E8
S1130FC0149715966C928281F801E65AFF4F80833C
S1130FD091CDA0912F1BB091301B4D915C91119735
S1130FE02417350739F4F801848195810196958396
S1130FF0848380CD26E013962C931397F801EA5A44
S1131000FF4F208131812F5F3F4F31832083329600
S1131010608171816F5F7F4F71836083F8012681E6
S113102037812F3F3F4F61F0F8013896272D362D39
S11310307B01419151914F3F5F4FC1F4B70102C011
S113104020E0322D4D915C911197F901EE0FFF1FB5
S1131050E00FF11F5783468377AB66AB12964C9132
S11310601297F801E20FF31F46A305C02F5F3F4F0D
S113107020313105F1F612963C911297FC01228140
S1131080321718F412962C9122833FDA33CDD9010A
S113109016968D919C91179770D99C838B83FC0134
S11310A082819381F8D89A8389832B813C81232B75
S11310B021F481E896E087D21DCDE0912F1BF091B9
S11310C0301B80819181AB81BC8112962D913C9122
S11310D013972817390721F085EB96E074D20ACDCF
S11310E0EB81FC81848195818230910520F0019708
S11310F095838483FFCCEB81FC81EA5AFF4FA08067
S1131100B180A114B10409F475C0EB81FC81E85AE3
S1131110FF4F608171816F5F7F4F2B813C812A5D1E
S11311203F4FEB81FC81F696AB81BC8116964B81D7
S11311305C814A5A5F4FF12C022D1BE0BE83AD83C4
S1131140C9012B813C819C838B83AB81BC81ED9055
S1131150BC83AB83E11648F460817181AD81BE81AB
S1131160FC9011960C911E2D10C0E1120EC08081CE
S113117091816817790740F4AD81BE81FC90119686
S11311800C911E2DBC0101C01E2D32968D819E81B5
S113119002969E838D83E417F507B9F63C832B836F
S11311A0D90197969C928E9296978BE0D6968C93C3
S11311B0F901EA5AFF4FC5010197918380838F2D6E
S11311C0902F69D8AB81BC81A65ABF4F2C91E9817D
S11311D0FA812283EB81FC81F28203831C9321E058
S11311E0DC0113962C93E0912F1BF091301B238389
S11311F08CD980CCEB81FC811382128215821482FB
S1131200E65AFF4F8081A981BA8112968C9372CCE1
S113121081E0F901838379D96DCC40922C1B6ACC8F
S113122026960FB6F894DEBF0FBECDBFDF91CF91E7
S11312301F910F91FF90EF90DF90CF90BF90AF90F0
S11312409F908F907F906F905F904F903F902F90E2
S113125008952091281B3091291B232B89F0F894A1
S1131260E0912F1BF091301B62835187408721E06E
S11312702583E45FFE4F918380830E94F60001C0C2
S1131280DAD980912C1B8430A1F08091261B909197
S1131290271B9F938F938FEE96E09F938F9380D11C
S11312A08091261B9091271B0F900F900F900F9009
S11312B0089580E090E008958091281B9091291B67
S11312C0892B21F483E080932C1B0895F894E091FA
S11312D02F1BF091301B83E085830C94F600089556
S11312E02091281B3091291B232B21F483E0809328
S11312F02C1B0895F894E0912F1BF091301B26E0ED
S11313002583978386830C94F60008958091281B87
S11313109091291B892B51F0F894E0912F1BF091A7
S1131320301B87E085830E94F60001C01ADA8091A1
S11313302C1B8830A1F080912A1B90912B1B9F932A
S11313408F9380E097E09F938F932AD180912A1BFB
S113135090912B1B0F900F900F900F90089580E0A9
S113136090E008952091281B3091291B232B21F410
S113137083E080932C1B0895F894E0912F1BF09147
S1131380301B28E02583978386830C94F600089508
S11313902091281B3091291B232B21F483E0809377
S11313A02C1B0895F894E0912F1BF091301B29E039
S11313B02583978386830C94F60008958091281BD7
S11313C09091291B892B51F0F894E0912F1BF091F7
S11313D0301B8AE085830E94F60001C021DA8091E7
S11313E02C1B8C30A1F08091311B9091321B9F9368
S11313F08F9383E197E09F938F93D2D08091311B99
S11314009091321B0F900F900F900F90089580E0F1
S113141090E008952091281B3091291B232B21F45F
S113142083E080932C1B0895F894E0912F1BF09196
S1131430301B2BE02583978386830C94F600089554
S11314402091281B3091291B232B21F483E08093C6
S11314502C1B0895F894E0912F1BF091301B2CE085
S11314602583978386830C94F600089575D085D0E0
S113147086E297E0A8D037C00895299A29988AE08F
S113148090E02EDF299A29988091371B9091381B80
S1131490C1DF299A2998FFCF2A9A2A9884E190E0FB
S11314A01FDF2A9A2A988091351B9091361B70DF92
S11314B02A9A2A98FFCF2B9A2B988091371B9091C8
S11314C0381BA8DF2B9A2B988091351B9091361BE3
S11314D049DF2B9A2B988091371B9091381BB0DFF2
S11314E02B9A2B98FFCF219A229A239A4EDA66DF01
S11314F09093381B8093371B09DF9093361B80939E
S1131500351B40E050E061E08DE39AE0A2DE40E06C
S113151050E062E08CE49AE09CDE40E050E063E05E
S11315208BE59AE096DEA6CA0895CF93C82F8A3039
S113153011F48DE0FADFE0ECF0E0908195FFFDCF4F
S1131540C093C600CF910895E0ECF0E08081882339
S1131550ECF78091C60008951092C50087E6809349
S1131560C400E0ECF0E080818D7F808386E080938E
S1131570C20088E18093C1000895E9E3FBE18EE0B5
S113158092E09383828380E092E091838083089544
S1131590EE0FFF1F881F8BBF0790F691E02D199463
S11315A0CF93DF93CDB7DEB7AE014A5F5F4FFA0149
S11315B061917191AF0180913B1B90913C1B33D0A1
S11315C0DF91CF9108950F931F93CF93DF93E09111
S11315D03B1BF0913C1B238121FF1BC08C01D0E0FD
S11315E0C0E0F80181918F0160913B1B70913C1B1D
S11315F0DB011896ED91FC911997882331F0199528
S1131600892B79F3DFEFCFEFECCF8AE01995892BA3
S113161019F08FEF9FEF02C08D2F9C2FDF91CF9198
S11316201F910F9108952F923F924F925F926F9264
S11316307F928F929F92AF92BF92CF92DF92EF925E
S1131640FF920F931F93CF93DF93CDB7DEB72C9701
S11316500FB6F894DEBF0FBECDBF7C016B018A01CB
S1131660FC0117821682838181FFB0C1CE010196ED
S11316704C01F7019381F60193FD859193FF8191CC
S11316806F01882309F49EC1853239F493FD859155
S113169093FF81916F01853221F4B70190E0C7D1A6
S11316A0E8CF512C312C20E02032A0F48B3269F0A9
S11316B030F4803259F0833269F420612CC08D32C9
S11316C039F0803339F4216026C02260246023C0BD
S11316D0286021C027FD27C030ED380F3A3078F458
S11316E026FF06C0FAE05F9E300D1124532E13C06E
S11316F08AE0389E300D1124332E20620CC08E32C5
S113170021F426FD5FC1206406C08C3611F42068E4
S113171002C0883641F4F60193FD859193FF8191CF
S11317206F018111C1CF982F9F7D9554933028F478
S11317300C5F1F4FFFE3F9830DC0833631F083370D
S113174071F0833509F057C021C0F8018081898385
S11317500E5F1F4F44244394512C540114C038018C
S1131760F2E06F0E711CF801A080B18026FF03C067
S1131770652D70E002C06FEF7FEFC5012C874CD15F
S11317802C0183012C852F77222E16C03801F2E01C
S11317906F0E711CF801A080B18026FF03C0652D77
S11317A070E002C06FEF7FEFC5012C872AD12C01B6
S11317B02C852068222E830123FC19C0832D90E000
S11317C048165906A0F4B70180E290E030D13A946B
S11317D0F5CFF50127FC859127FE81915F01B701C3
S11317E090E025D131103A94F1E04F1A5108411498
S11317F0510479F7DEC0843611F0893631F5F801E9
S113180027FF07C060817181828193810C5F1F4F24
S113181008C060817181072E000C880B990B0E5F44
S11318201F4F2F76722E97FF09C090958095709563
S113183061957F4F8F4F9F4F2068722E2AE030E0D2
S1131840A4012DD1A82EA81843C0853729F42F7ED2
S1131850B22E2AE030E025C0F22FF97FBF2E8F365A
S1131860C1F018F4883579F0ADC0803719F08837A5
S113187021F0A8C02F2F2061B22EB4FE0DC08B2DF5
S11318808460B82E09C024FF0AC09F2F9660B92E29
S113189006C028E030E005C020E130E002C020E1CD
S11318A032E0F801B7FE07C06081718182819381C3
S11318B00C5F1F4F06C06081718180E090E00E5F75
S11318C01F4FA401ECD0A82EA818FB2DFF777F2E64
S11318D076FE0BC0372D3E7FA51450F474FE0AC06B
S11318E072FC08C0372D3E7E05C0BA2C372D03C0CC
S11318F0BA2C01C0B52C34FF0DC0FE01EA0DF11D58
S11319008081803311F4397E09C032FF06C0B3945C
S1131910B39404C0832F867809F0B39433FD12C0C6
S113192030FF06C05A2CB31418F4530C5B18B32CB4
S1131930B31460F4B70180E290E03C8778D0B394AC
S11319403C85F6CFB31410F43B1801C0312C34FF9E
S113195011C0B70180E390E03C8769D03C8532FF39
S113196016C031FD03C088E790E002C088E590E02E
S1131970B7010CC0832F867851F031FF02C08BE28F
S113198001C080E237FD8DE2B70190E050D0A5148C
S113199030F4B70180E390E04AD05A94F8CFAA9487
S11319A0F401EA0DF11D8081B70190E040D0A1104F
S11319B0F6CF332009F45DCEB70180E290E037D052
S11319C03A94F7CFF7018681978102C08FEF9FEF9A
S11319D02C960FB6F894DEBF0FBECDBFDF91CF912A
S11319E01F910F91FF90EF90DF90CF90BF90AF9039
S11319F09F908F907F906F905F904F903F902F902B
S1131A000895FC010590615070400110D8F780954D
S1131A1090958E0F9F1F0895FC01615070400190B6
S1131A200110D8F7809590958E0F9F1F08950F93FE
S1131A301F93CF93DF93FB01238121FD03C08FEF1D
S1131A409FEF28C022FF16C046815781248135812B
S1131A504217530744F4A081B1819D012F5F3F4F8A
S1131A60318320838C93268137812F5F3F4F3783C7
S1131A70268310C0EB01092F182F0084F185E02D77
S1131A801995892BE1F68E819F8101969F838E8320
S1131A90812F902FDF91CF911F910F910895FA011B
S1131AA0AA27283051F1203181F1E8946F936E7F99
S1131AB06E5F7F4F8F4F9F4FAF4FB1E03ED0B4E08A
S1131AC03CD0670F781F891F9A1FA11D680F791FCB
S1131AD08A1F911DA11D6A0F711D811D911DA11DDC
S1131AE020D009F468943F912AE0269F11243019EC
S1131AF0305D3193DEF6CF010895462F4770405D87
S1131B004193B3E00FD0C9F7F6CF462F4F70405D35
S1131B104A3318F0495D31FD4052419302D0A9F790
S1131B20EACFB4E0A6959795879577956795BA958A
S1131B30C9F700976105710508959B01AC010A2E50
S1131B4006945795479537952795BA95C9F7620F27
S1111B50731F841F951FA01D0895F894FFCFE6
S1131B5E00000001000000000000A40A00000000C4
S1131B6E000200000000950A0000000066696E6421
S1131B7E4576656E74427949443A205468652073FB
S1131B8E7065636966696564206576656E7420495F
S1131B9E4420697320696E76616C696421006669FC
S1131BAE6E644D75746578427949443A205468657B
S1131BBE20737065636966696564206D75746578F4
S1131BCE20494420697320696E76616C6964210032
S1131BDE5461736B5F4372656174653A2046616943
S1131BEE6C656420746F2063726561746520746122
S1131BFE736B2E205468652073797374656D206938
S1131C0E73206174206974732070726F63657373CB
S1131C1E207468726573686F6C642E004576656E09
S1131C2E745F496E69743A204661696C6564207408
S1131C3E6F20637265617465204576656E742E201F
S1131C4E5468652073797374656D206973206174AB
S1131C5E20697473206D6178206576656E742074C6
S1131C6E68726573686F6C642E004576656E745F7A
S1131C7E496E69743A2043726561746564204576D1
S1131C8E656E74202564210A004B65726E656C5F67
S1131C9E4372656174655F4D757465783A2046616B
S1131CAE696C656420746F20637265617465204D80
S1131CBE757465782E205468652073797374656D18
S1131CCE20697320617420697473206D6178206DAE
S1131CDE75746578207468726573686F6C642E0011
S1131CEE4B65726E656C5F4372656174655F4D75AD
S1131CFE7465783A2043726561746564204D757419
S1131D0E6578202564210A0054696D657220696E18
S1131D1E697469616C697A656421004F5320696E38
S1131D2E697469616C697A656421004F5320626538
S1131D3E67696E7321004B65726E656C5F537573C4
S1131D4E70656E645F5461736B3A20504944206E23
S1131D5E6F7420666F756E6420696E20676C6F6297
S1131D6E616C2070726F63657373206C6973742178
S1131D7E004B65726E656C5F53757370656E645F50
S1131D8E5461736B3A20547279696E6720746F20B4
S1131D9E73757370656E642061207461736B207447
S1131DAE686174277320696E20616E20756E737579
S1131DBE7370656E6461626C652073746174652002
S1131DCE2564210A004B65726E656C5F52657375EE
S1131DDE6D655F5461736B3A20504944206E6F7485
S1131DEE20666F756E6420696E20676C6F62616C1D
S1131DFE2070726F63657373206C69737421004B6A
S1131E0E65726E656C5F526573756D655F54617353
S1131E1E6B3A20547279696E6720746F2072657301
S1131E2E756D652061207461736B2074686174270D
S1131E3E73206E6F742053555350454E44454421C0
S1131E4E0043555252454E542053544154453A2062
S1131E5E25640A004B65726E656C5F576169745F29
S1131E6E4576656E743A204572726F722066696E9D
S1131E7E64696E6720726571756573746564206537
S1131E8E76656E7421004B65726E656C5F57616981
S1131E9E745F4576656E743A205468652072657178
S1131EAE756573746564206576656E742069732038
S1131EBE616C7265616479206265696E6720776111
S1131ECE69746564206279205049442025640A00AF
S1131EDE4B65726E656C5F5369676E616C5F4576B8
S1131EEE656E743A204572726F722066696E64690B
S1131EFE6E672072657175657374656420657665A9
S1131F0E6E7421004B65726E656C5F5369676E610A
S1131F1E6C5F4576656E743A202A5741524E494E8F
S1131F2E472A2054686520726571756573746564FB
S1131F3E206576656E74206973206E6F74206265F9
S1131F4E696E672077616974656420627920616EB9
S1131F5E796F6E6521004B65726E656C5F536967B0
S1131F6E6E616C5F4576656E743A204576656E7467
S1131F7E206F776E6572277320504944206E6F74FC
S1131F8E20666F756E6420696E20676C6F62616C7B
S1131F9E2070726F63657373206C69737421004BC8
S1131FAE65726E656C5F4C6F636B5F4D75746578AF
S1131FBE3A204572726F722066696E64696E67208C
S1131FCE726571756573746564206D7574657821B9
S1131FDE004B65726E656C5F556E6C6F636B5F4D17
S1131FEE757465783A204572726F722066696E64F4
S1131FFE696E6720726571756573746564206D759D
S113200E74657821004B65726E656C5F556E6C6FEE
S113201E636B5F4D757465783A20546865206F77ED
S113202E6E6572206973206E6F7420746865206308
S113203E757272656E742070726F6365737300438C
S113204E726561746564205049443A2025640A001F
S113205E43726561746564204576656E743A202515
S113206E640A0043726561746564204D7574657805
S113207E3A2025640A005354444F55542D3E55417D
S107208E5254210083
S9030000FC
