S00A000070322E7372656378
S11300007EC000009CC000009AC0000098C00000A0
S113001096C0000094C0000092C0000090C0000090
S11300208EC000008CC000008AC0000088C00000A0
S113003086C0000084C0000082C0000080C00000B0
S11300407EC0000094C200007AC0000078C00000A6
S113005076C0000074C0000072C0000070C00000D0
S11300606EC000006CC000006AC0000068C00000E0
S113007066C0000064C0000062C0000060C00000F0
S11300805EC000005CC000005AC0000058C0000000
S113009056C0000054C0000052C0000050C0000010
S11300A04EC000004CC000004AC0000048C0000020
S11300B046C0000044C0000042C0000040C0000030
S11300C03EC000003CC000003AC0000038C0000040
S11300D036C0000034C0000032C0000030C0000050
S11300E02EC00000BC07AB04BC07B504C304EB047A
S11300F01C0522058105D4051C06A4061907112434
S11301001FBECFEFD1E2DEBFCDBF00E00CBF18E0D1
S1130110A0E0B2E0ECEAF7E100E00BBF02C0079018
S11301200D92A232B107D9F72CE1A2E2B8E001C0E6
S11301301D92AF31B207E1F7D8D70C94D40B60CF3E
S11301400F921F922F923F924F925F926F927F92E3
S11301508F929F92AF92BF92CF92DF92EF92FF92D3
S11301600F931F932F933F934F935F936F937F93BB
S11301708F939F93AF93BF93CF93DF93EF93FF93AB
S1130180FCB7FF93FFB7FF93EDB7FEB7E093171CDF
S1130190F093181CE091111CF091121CEDBFFEBFEE
S11301A0FF91FFBFFF91FCBFFF91EF91DF91CF91D2
S11301B0BF91AF919F918F917F916F915F914F917B
S11301C03F912F911F910F91FF90EF90DF90CF906F
S11301D0BF90AF909F908F907F906F905F904F9063
S11301E03F902F901F900F9018950F921F922F926F
S11301F03F924F925F926F927F928F929F92AF92B3
S1130200BF92CF92DF92EF92FF920F931F932F939F
S11302103F934F935F936F937F938F939F93AF938A
S1130220BF93CF93DF93EF93FF93FCB7FF93FFB795
S1130230FF93EDB7FEB7E093111CF093121CE0910D
S1130240171CF091181CEDBFFEBFFF91FFBFFF917B
S1130250FCBFFF91EF91DF91CF91BF91AF919F913F
S11302608F917F916F915F914F913F912F911F914A
S11302700F91FF90EF90DF90CF90BF90AF909F9041
S11302808F907F906F905F904F903F902F901F9032
S11302900F90089520E130E0AFEFBFEF6BE070E026
S11302A04EE051E0809128089091290801968F70C2
S11302B09927909329088093280880912808909181
S11302C02908849FF001859FF00D949FF00D11245F
S11302D0E65DF44F8381813029F58091280890915F
S11302E02908849FF001859FF00D949FF00D11243F
S11302F0E65DF44F828190E0861797079CF4809125
S1130300280890912908849FF001859FF00D949FFF
S1130310F00D1124E65DF44F628170E0A09128088D
S1130320B09129082150310909F0BCCFAF3F8FEFBC
S1130330B80709F578942EE031E00BC080912808C5
S11303409091290801968F7099279093290880939A
S113035028088091280890912908829FF001839FA2
S1130360F00D929FF00D1124E65DF44F83818130EE
S113037029F7F89404C0B0932908A0932808209181
S11303802808309129088EE091E0289FF001299FE8
S1130390F00D389FF00D1124E65DF44FF093141C1A
S11303A0E093131C828593859093121C8093111CF7
S11303B082E0838308951816190684F520912A0B88
S11303C030912B0B2817390799F021E030E06EE0CB
S11303D071E0269FF001279FF00D369FF00D112448
S11303E0E65DF44F408151814817590779F402C002
S11303F020E030E04EE051E0249FC001259F900DA5
S1130400349F900D1124865D944F08952F5F3F4FC4
S113041020313105F1F680E090E0089580E090E02D
S11304200895009751F02091FA0A3091FB0A281799
S11304303907D9F021E030E009C08CE192E0EAD636
S113044081E08093101C80E090E00895F901EE0FA4
S1130450FF1FE20FF31FEE0FFF1FE650F54F408121
S113046051814817590769F402C020E030E0C901FE
S1130470880F991F820F931F880F991F8650954FDD
S113048008952F5F3F4F2830310501F789E08093AD
S1130490101C80E090E00895009759F020912A08FC
S11304A030912B0828173907D1F021E030E06AE5B4
S11304B009C08EE492E0AED681E08093101C80E007
S11304C090E00895629FF001639FF00D1124E65DB2
S11304D0F74F408151814817590761F402C020E069
S11304E030E04AE5429FC001439F900D1124865D90
S11304F0974F08952F5F3F4F2830310519F78DE04E
S11305008093101C80E090E008952091360C309187
S1130510370C2817390799F021E030E06EE071E0DC
S1130520269FF001279FF00D369FF00D1124EA5C01
S1130530F34F408151814817590789F402C020E0E4
S113054030E08EE091E0289FF001299FF00D389F64
S1130550F00D1124E65DF44F8081918108952F5FA1
S11305603F4F20313105E1F68FEF9FEF08951F9241
S11305700F920FB60F9211240BB60F922F933F9345
S11305804F935F936F938F939F93EF93FF9380E0C9
S113059090E02EE031E061E0829FF001839FF00D56
S11305A0929FF00D1124E65DF44F43814430E9F449
S11305B0829FF001839FF00D929FF00D1124E65D60
S11305C0F44F46815781415051095783468314168D
S11305D015069CF1829FF001839FF00D929FF00D10
S11305E01124E65DF44F638328C0829FF001839F4A
S11305F0F00D929FF00D1124E65DF44F44814430D8
S1130600E1F4829FF001839FF00D929FF00D11247D
S1130610E65DF44F46815781415051095783468323
S11306201416150654F0829FF001839FF00D929FDB
S1130630F00D1124E65DF44F648301968031910539
S113064009F0AACFFF91EF919F918F916F915F91E4
S11306504F913F912F910F900BBE0F900FBE0F90B3
S11306601F901895CF92DF92EF92FF920F931F93F2
S1130670CF93DF93DC01809126089091270840975F
S113068049F080912D0B8823F1F021E030E0CEE099
S1130690D1E007C080E892E0BDD584E08093101CCF
S11306A06EC02C9FF0012D9FF00D3C9FF00D112486
S11306B0E65DF44F9381992341F02F5F3F4F203142
S11306C0310579F702C020E030E08091260890914E
S11306D0270801969093270880932608EEE0F1E01E
S11306E02E9FC0012F9F900D3E9F900D1124EC0171
S11306F0CB5CD34F8C010A5C144FC12CDD24D39402
S1130700F8018601119201501040E1F7CE0100E199
S113071018E008830197FC01108331971082319708
S1130720A0833197B0833197108290E092939F5FBA
S11307309232E1F780910A1C90910B1C01969093E0
S11307400B1C80930A1C0EE011E0209FF001219FF6
S1130750F00D309FF00D1124E65DF44F91838083FA
S1130760628351874087158281E08383A897D3876A
S1130770C287E45FFE4FB183A0831092101CDF9107
S1130780CF911F910F91FF90EF90DF90CF9008953C
S1130790E1E8F0E080818560808380818D7F8083C3
S11307A080818860808380818C7E80838DE990E065
S11307B090938900809388001092850010928400A1
S11307C0EFE6F0E08081826080838CEC92E022C5C9
S11307D00895109227081092260810922508109266
S11307E0240810920D1C10920C1C109229081092CF
S11307F0280810920B1C10920A1C10920F1C1092C5
S11308000E1C1092101C80EE90E1EAE2FBE0DF0186
S11308109C011D9221503040E1F780E090E02EE0F1
S113082031E0829FF001839FF00D929FF00D11241F
S1130830E65DF44F138201968031910591F780E3D0
S1130840EAEFFAE0DF011D928A95E9F780E090E093
S1130850FC01EE0FFF1FE80FF91FEE0FFF1FE6501C
S1130860F54F1182108201968830910589F790DF47
S11308708FED92E0CFC408952F923F924F925F92F2
S11308806F927F928F929F92AF92BF92CF92DF929C
S1130890EF92FF920F931F93CF93DF9300D000D07A
S11308A0CDB7DEB780910C1C90910D1C892B09F0FB
S11308B06CC38091260890912708892B09F465C39D
S11308C0F89481E090E090930D1C80930C1C8FEEC3
S11308D092E0A0D4DFDC612C512CAA24AA94BA2C77
S11308E099249394812C0F2EFAE5EF2EF02D0F2EE0
S11308F0FDE27F2EF02D0F2EFBE02F2EF02D0F2E7C
S1130900F7E2CF2EF6E0DF2EF02DE091131CF091EC
S1130910141C1582828593859093121C8093111C5C
S11309200FDC2091131C3091141C8091111C9091A8
S1130930121CD9011B969C938E931A9715968C9131
S113094090E08D30910508F01CC3FC018827EE5817
S1130950FF4F8F4F44C4F901408551856281E45FA4
S1130960FE4F808191817EDED0CFD90113961C92F7
S113097080912608909127080197909327088093E7
S1130980260888DCC2CFF9018681978114DDFC0139
S1130990892B39F48AEF92E03DD485E08093101CD2
S11309A0B4CF8381882311F0833079F41F928F931D
S11309B085E393E09F938F931AD486E08093101C71
S11309C00F900F900F900F90A0CF848383E08383C8
S11309D01092101C9ACFD90116968D919C9117975D
S11309E0EADC8C01009739F489E893E013D485E0BC
S11309F08093101C8ACFFC0183818330A9F083EC9F
S1130A0093E008D4D80113968C911F928F9385E0BC
S1130A1094E09F938F93EBD387E08093101C0F9007
S1130A200F900F900F9071CFF8018481838383E03E
S1130A3084831092101C69CF84E0D90113968C939F
S1130A4029DC63CF8091240890912508089748F405
S1130A508091FA0A9091FB0A892BE1F0892D982D57
S1130A6007C088E194E0D6D388E08093101C4DCF72
S1130A70FC01EE0FFF1FE80FF91FEE0FFF1FE650FA
S1130A80F54F20813181232B39F00196883091056F
S1130A9079F702C0862D952D20910E1C30910F1CE4
S1130AA02F5F3F4F30930F1C20930E1CFC01EE0F61
S1130AB0FF1FDF01A80FB91FAA0FBB1FA650B54F18
S1130AC011963C932E93FD01138212828091240887
S1130AD090912508019690932508809324081092FC
S1130AE0101C80910E1C90910F1C9F938F9386E68F
S1130AF094E09F938F937BD30F900F900F900F9060
S1130B0004CFF901868197818CDCFC01892B21F4C7
S1130B1085E894E07FD33EC0828193810097C1F041
S1130B20A091131CB091141C2D913C918217930732
S1130B3079F09F938F93A7EBB4E0BF93AF9357D310
S1130B4089E08093101C0F900F900F900F9022C09B
S1130B5084819581892B81F01382128215821482FB
S1130B601182108280912408909125080197909316
S1130B702508809324080EC0A091131CB091141C66
S1130B808D919C9111979383828385E013968C9326
S1130B901092101CE091131CF091141C838182307C
S1130BA009F4B3CE77DBB1CED90116968D919C9121
S1130BB0179737DC8C01009721F481E095E02AD364
S1130BC0A4CEFC0184819581892B11F494828582C1
S1130BD0D80112968D919C911397009731F485E377
S1130BE095E018D32092101C90CEE5DB009739F4E1
S1130BF087E895E00FD385E08093101C86CEFC0136
S1130C002381253009F081CED80113961C921E92BF
S1130C10129715961C921E9214971D921C92209165
S1130C202408309125082150310930932508209358
S1130C30240821E0238369CE80912208909123081F
S1130C40089748F4EAE2F8E080819181892BD9F091
S1130C50492D582D07C080ED95E0DCD28CE08093BF
S1130C60101C53CEE49EF001E59EF00D1124E65DC8
S1130C70F74F80819181892B41F04F5F5F4F48305E
S1130C80510581F702C0462D552D8091151C909178
S1130C90161C01969093161C8093151CE49EF0017B
S1130CA0E59EF00D1124E65DF74F91838083138256
S1130CB01282262D352DBF01749ED001759EB00D74
S1130CC01124FB01E20FF31F1BE016A3CD01820FD9
S1130CD0931FFC01EE0FFF1FE05DF74FB182A0826E
S1130CE0880F991FFC01E05AF74F118210822F5F81
S1130CF03F4F2031310529F7E49EC001E59E900D58
S1130D001124865D974FFC01EA5AFF4F118210822D
S1130D1032961182108280912208909123080196C4
S1130D2090932308809322081092101C8091151C24
S1130D309091161C9F938F93DF92CF9258D20F906D
S1130D400F900F900F90E1CDD90116968D919C9143
S1130D501797A2DBDC01892B21F48FE496E05AD2A9
S1130D60D4CD12968D919C911397009781F4E091C4
S1130D70131CF091141C8081918113969C938E9383
S1130D80129714969C92149715968C92BECD6091EE
S1130D90131C7091141CFB0120813181821793076D
S1130DA051F414968D919C911597019615969C93E8
S1130DB08E931497AACD86E0FB018383FD01EA5A42
S1130DC0FF4F808191810196918380833296808147
S1130DD0918101969183808316962D913C9117976A
S1130DE02F3F3F4F51F0FD013896292D382D419169
S1130DF051914F3F5F4FB1F402C0262D352DFB01B9
S1130E0040815181F901EE0FFF1FEA0FFB1F578349
S1130E10468397AB86ABFB018281FD01E20FF31F92
S1130E2086A305C02F5F3F4F2031310501F732DA29
S1130E306CCDD90116968D919C9117972DDB8C0161
S1130E40892B21F481E896E0E5D15FCDE091131C74
S1130E50F091141C80819181F8012281338128173B
S1130E60390721F085EB96E0D5D14FCD848195816A
S1130E708230910520F001979583848346CDF80153
S1130E80EA5AFF4F208131812115310509F46AC0E6
S1130E903296608171816F5F7F4FC8018696B297E9
S1130EA0D8011696A8014A5A5F4FF62C0F2EFBE084
S1130EB03F2EF02DBE83AD83BA82A982DC82CB8221
S1130EC0D22CB52CC32C18018901DC014D90CD0125
S1130ED04C1448F460817181AD81BE81FC901196FF
S1130EE0BC90C42C10C04C100EC0208131816217FC
S1130EF0730740F4AD81BE81FC901196BC90C42C64
S1130F00B90101C0C42C32962D813E812E5F3F4F22
S1130F103E832D83E417F507C1F6980181012D2C3A
S1130F20CB80DC804B2CA980BA80D8019796BC92E8
S1130F30AE929697EBE0D696EC93F801EA5AFF4FFF
S1130F40C9010197918380838F2D942D34DAD801C0
S1130F501296FC92129713964C9221E0FC01238383
S1130F6099D9D3CCD80113961C921E921297159638
S1130F701C921E921497C9CC81E0F90183838AD90B
S1130F80C4CC82E08093101CC0CC26960FB6F89493
S1130F90DEBF0FBECDBFDF91CF911F910F91FF90A8
S1130FA0EF90DF90CF90BF90AF909F908F907F9005
S1130FB06F905F904F903F902F90089520910C1C5C
S1130FC030910D1C232B81F0F894E091131CF091C7
S1130FD0141C62835187408721E02583E45FFE4F20
S1130FE09183808302D901C03DDB8091101C843041
S1130FF0A1F080910A1C90910B1C9F938F938FEE0C
S113100096E09F938F93F3D080910A1C90910B1CD0
S11310100F900F900F900F90089580E090E0089546
S113102080910C1C90910D1C892B21F483E08093FA
S1131030101C0895F894E091131CF091141C83E0A3
S11310408583D3C8089580910C1C90910D1C892B25
S113105021F483E08093101C0895F894E091131C0C
S1131060F091141C82E08583C0C8089520910C1C63
S113107030910D1C232B21F483E08093101C0895E0
S1131080F894E091131CF091141C24E025839783B9
S11310908683ABC8089520910C1C30910D1C232B22
S11310A021F483E08093101C0895F894E091131CBC
S11310B0F091141C25E025839783868396C80895B0
S11310C020910C1C30910D1C232B21F483E0809380
S11310D0101C0895F894E091131CF091141C26E060
S11310E025839783868381C808955DD06DD086E279
S11310F097E090D02AC008952F9A84E397E08AD08D
S11311008EE190E0DDDF9FDFF7CF2F9885E497E055
S113111081D08EE190E0D4DF96DFF7CF84E690E0D3
S1131120CFDF8AE397E076D085E898E0EED99EDFBA
S11311308ADF84E690E0C4DF8BE497E06BD085E837
S113114098E0E3D9A8DF7FDFE9CF43DB80E884B907
S113115042ED50E066E08CE798E030DF4DEC50E083
S113116066E085E898E02ADF40E050E064E08EE83D
S113117098E024DF81CB0895CF93C82F8A3011F4EF
S11311808DE0FADFE0ECF0E0908195FFFDCFC093B5
S1131190C600CF910895E0ECF0E080818823ECF75D
S11311A08091C60008951092C50087E68093C4001C
S11311B0E0ECF0E080818D7F808386E08093C20044
S11311C088E18093C1000895E9E1FCE18EE092E0BA
S11311D09383828380E092E0918380830895EE0F6D
S11311E0FF1F881F8BBF0790F691E02D1994CF93B2
S11311F0DF93CDB7DEB7AE014A5F5F4FFA0161916D
S11312007191AF0180911B1C90911C1C33D0DF9114
S1131210CF9108950F931F93CF93DF93E0911B1CFD
S1131220F0911C1C238121FF1BC08C01D0E0C0E085
S1131230F80181918F0160911B1C70911C1CDB01D2
S11312401896ED91FC911997882331F01995892B03
S113125079F3DFEFCFEFECCF8AE01995892B19F002
S11312608FEF9FEF02C08D2F9C2FDF91CF911F91A5
S11312700F9108952F923F924F925F926F927F92B7
S11312808F929F92AF92BF92CF92DF92EF92FF9292
S11312900F931F93CF93DF93CDB7DEB72C970FB681
S11312A0F894DEBF0FBECDBF7C016B018A01FC0147
S11312B017821682838181FFB0C1CE0101964C0151
S11312C0F7019381F60193FD859193FF81916F015D
S11312D0882309F49EC1853239F493FD859193FFE7
S11312E081916F01853221F4B70190E0C7D1E8CF35
S11312F0512C312C20E02032A0F48B3269F030F4F0
S1131300803259F0833269F420612CC08D3239F077
S1131310803339F4216026C02260246023C0286011
S113132021C027FD27C030ED380F3A3078F426FF6E
S113133006C0FAE05F9E300D1124532E13C08AE0DC
S1131340389E300D1124332E20620CC08E3221F4CD
S113135026FD5FC1206406C08C3611F4206802C0EB
S1131360883641F4F60193FD859193FF81916F01D5
S11313708111C1CF982F9F7D9554933028F40C5F31
S11313801F4FFFE3F9830DC0833631F0833771F0CB
S1131390833509F057C021C0F801808189830E5F2D
S11313A01F4F44244394512C540114C03801F2E0DB
S11313B06F0E711CF801A080B18026FF03C0652D5B
S11313C070E002C06FEF7FEFC5012C874CD12C0178
S11313D083012C852F77222E16C03801F2E06F0E80
S11313E0711CF801A080B18026FF03C0652D70E058
S11313F002C06FEF7FEFC5012C872AD12C012C8509
S11314002068222E830123FC19C0832D90E0481606
S11314105906A0F4B70180E290E030D13A94F5CFB8
S1131420F50127FC859127FE81915F01B70190E0CA
S113143025D131103A94F1E04F1A51084114510466
S113144079F7DEC0843611F0893631F5F80127FFCB
S113145007C060817181828193810C5F1F4F08C036
S113146060817181072E000C880B990B0E5F1F4F52
S11314702F76722E97FF09C090958095709561958F
S11314807F4F8F4F9F4F2068722E2AE030E0A401D7
S11314902DD1A82EA81843C0853729F42F7EB22E4B
S11314A02AE030E025C0F22FF97FBF2E8F36C1F03D
S11314B018F4883579F0ADC0803719F0883721F0F9
S11314C0A8C02F2F2061B22EB4FE0DC08B2D8460D6
S11314D0B82E09C024FF0AC09F2F9660B92E06C0FB
S11314E028E030E005C020E130E002C020E132E035
S11314F0F801B7FE07C060817181828193810C5F1E
S11315001F4F06C06081718180E090E00E5F1F4F25
S1131510A401ECD0A82EA818FB2DFF777F2E76FE11
S11315200BC0372D3E7FA51450F474FE0AC072FC24
S113153008C0372D3E7E05C0BA2C372D03C0BA2C07
S113154001C0B52C34FF0DC0FE01EA0DF11D8081F0
S1131550803311F4397E09C032FF06C0B394B394CA
S113156004C0832F867809F0B39433FD12C030FF92
S113157006C05A2CB31418F4530C5B18B32CB314D0
S113158060F4B70180E290E03C8778D0B3943C8566
S1131590F6CFB31410F43B1801C0312C34FF11C042
S11315A0B70180E390E03C8769D03C8532FF16C0E8
S11315B031FD03C088E790E002C088E590E0B70100
S11315C00CC0832F867851F031FF02C08BE201C03A
S11315D080E237FD8DE2B70190E050D0A51430F4DD
S11315E0B70180E390E04AD05A94F8CFAA94F4016A
S11315F0EA0DF11D8081B70190E040D0A110F6CF33
S1131600332009F45DCEB70180E290E037D03A94FC
S1131610F7CFF7018681978102C08FEF9FEF2C9659
S11316200FB6F894DEBF0FBECDBFDF91CF911F91EF
S11316300F91FF90EF90DF90CF90BF90AF909F906D
S11316408F907F906F905F904F903F902F90089570
S1131650FC010590615070400110D8F78095909579
S11316608E0F9F1F0895FC0161507040019001107E
S1131670D8F7809590958E0F9F1F08950F931F9311
S1131680CF93DF93FB01238121FD03C08FEF9FEFF5
S113169028C022FF16C04681578124813581421714
S11316A0530744F4A081B1819D012F5F3F4F3183E3
S11316B020838C93268137812F5F3F4F3783268386
S11316C010C0EB01092F182F0084F185E02D199526
S11316D0892BE1F68E819F8101969F838E83812FD2
S11316E0902FDF91CF911F910F910895FA01AA27AE
S11316F0283051F1203181F1E8946F936E7F6E5F51
S11317007F4F8F4F9F4FAF4FB1E03ED0B4E03CD0FE
S1131710670F781F891F9A1FA11D680F791F8A1FE1
S1131720911DA11D6A0F711D811D911DA11D20D048
S113173009F468943F912AE0269F11243019305D02
S11317403193DEF6CF010895462F4770405D4193F3
S1131750B3E00FD0C9F7F6CF462F4F70405D4A3340
S113176018F0495D31FD4052419302D0A9F7EACF08
S1131770B4E0A6959795879577956795BA95C9F737
S113178000976105710508959B01AC010A2E06942A
S11317905795479537952795BA95C9F7620F731FE3
S10F17A0841F951FA01D0895F894FFCF2E
S11317AC00000001000000000000CB080000000055
S11317BC000200000000BC080000000066696E64B2
S11317CC4576656E74427949443A205468652073B1
S11317DC7065636966696564206576656E74204915
S11317EC4420697320696E76616C696421006669B2
S11317FC6E644D75746578427949443A2054686531
S113180C20737065636966696564206D75746578A9
S113181C20494420697320696E76616C69642100E7
S113182C5461736B5F4372656174653A20466169F8
S113183C6C656420746F20637265617465207461D7
S113184C736B2E205468652073797374656D2069ED
S113185C73206174206974732070726F6365737381
S113186C207468726573686F6C642E0054696D65BE
S113187C7220696E697469616C697A656421004FC0
S113188C5320696E697469616C697A656421004FCF
S113189C5320626567696E7321004B65726E656CCB
S11318AC5F53757370656E645F5461736B3A20504B
S11318BC4944206E6F7420666F756E6420696E20C7
S11318CC676C6F62616C2070726F63657373206CEC
S11318DC69737421004B65726E656C5F537573701C
S11318EC656E645F5461736B3A20547279696E67E8
S11318FC20746F2073757370656E6420612074613D
S113190C736B2074686174277320696E20616E2078
S113191C756E73757370656E6461626C6520737437
S113192C617465202564210A004B65726E656C5FD9
S113193C526573756D655F5461736B3A20504944FD
S113194C206E6F7420666F756E6420696E20676CF0
S113195C6F62616C2070726F63657373206C697352
S113196C7421004B65726E656C5F526573756D65A1
S113197C5F5461736B3A20547279696E6720746F8B
S113198C20726573756D652061207461736B2074AE
S113199C6861742773206E6F742053555350454EF1
S11319AC444544210043555252454E54205354410E
S11319BC54453A2025640A004576656E745F496E79
S11319CC69743A204661696C656420746F20637293
S11319DC65617465204576656E742E2054686520A7
S11319EC73797374656D20697320617420697473E1
S11319FC206D6178206576656E74207468726573E9
S1131A0C686F6C642E004576656E745F496E6974FC
S1131A1C3A2043726561746564204576656E742062
S1131A2C2564210A004B65726E656C5F576169749D
S1131A3C5F4576656E743A204572726F72206669E2
S1131A4C6E64696E67207265717565737465642064
S1131A5C6576656E7421004B65726E656C5F5761BB
S1131A6C69745F4576656E743A20546865207265B6
S1131A7C71756573746564206576656E742069731D
S1131A8C20616C7265616479206265696E67207788
S1131A9C6169746564206279205049442025640A84
S1131AAC004B65726E656C5F5369676E616C5F4564
S1131ABC76656E743A204572726F722066696E6434
S1131ACC696E6720726571756573746564206576DB
S1131ADC656E7421004B65726E656C5F5369676E3D
S1131AEC616C5F4576656E743A202A5741524E49B3
S1131AFC4E472A2054686520726571756573746548
S1131B0C64206576656E74206973206E6F74206230
S1131B1C65696E67207761697465642062792061F8
S1131B2C6E796F6E6521004B65726E656C5F5369DF
S1131B3C676E616C5F4576656E743A204576656EAA
S1131B4C74206F776E6572277320504944206E6F32
S1131B5C7420666F756E6420696E20676C6F6261A9
S1131B6C6C2070726F63657373206C6973742100DD
S1131B7C4B65726E656C5F4372656174655F4D7520
S1131B8C7465783A204661696C656420746F2063CF
S1131B9C7265617465204D757465782E2054686582
S1131BAC2073797374656D20697320617420697472
S1131BBC73206D6178206D75746578207468726516
S1131BCC73686F6C642E004B65726E656C5F437248
S1131BDC656174655F4D757465783A20437265610F
S1131BEC746564204D75746578202564210A004B56
S1131BFC65726E656C5F4C6F636B5F4D7574657865
S1131C0C3A204572726F722066696E64696E672041
S1131C1C726571756573746564206D75746578216E
S1131C2C004B65726E656C5F556E6C6F636B5F4DCC
S1131C3C757465783A204572726F722066696E64A9
S1131C4C696E6720726571756573746564206D7552
S1131C5C74657821004B65726E656C5F556E6C6FA4
S1131C6C636B5F4D757465783A20546865206F77A3
S1131C7C6E6572206973206E6F74207468652063BE
S1131C8C757272656E742070726F63657373004342
S1131C9C726561746564205049443A2025640A00D5
S1131CAC43726561746564204576656E743A2025CB
S1131CBC640A0043726561746564204D75746578BB
S1131CCC3A2025640A005354444F55542D3E554133
S1131CDC5254210050494E47210053555350454E00
S1131CEC44494E4720504F4E472100524553554DC1
S1131CFC494E4720504F4E47210057616974696E15
S1131D0C6720666F72206576656E742025642E2EAE
S1131D1C2E0A005369676E616C20666F72206576BB
S1131D2C656E74202564207265636569766564212B
S1131D3C20546F74616C206576656E74733A20253B
S1131D4C640A0A0A005369676E616C20666F72201C
S1131D5C6576656E742025642072656365697665A5
S1131D6C642120546F74616C206576656E74733ACB
S1131D7C2025640A005369676E616C6C696E672078
S1131D8C6576656E742025642E2E2E0A0053494701
S1131D9C4E414C4544210048656C6C6F2066726F53
S1131DAC6D2031210048656C6C6F2066726F6D205C
S1131DBC32210048656C6C6F2066726F6D20332184
S1051DCC000011
S9030000FC
